:100000000C9404010C94BB0A0C94940A0C942C01DB
:100010000C942C010C942C010C942C010C942C01AC
:100020000C942C010C942C010C942C010C942C019C
:100030000C942C010C942C010C942C010C942C018C
:100040000C944A0A0C942C010C94080B0C94E20AB0
:100050000C942C010C942C010C942C010C942C016C
:100060000C942C010C942C010000000023002600AD
:10007000290000000000240027002A0000000000E2
:10008000250028002B0004040404040404040202D4
:100090000202020203030303030301020408102007
:1000A0004080010204081020010204081020000012
:1000B0000008000201000003040700000000000027
:1000C00000001912181415BB161117131A404020FE
:1000D000200804020277017E025803120659071411
:1000E00008110A8410761B661C0D1D5A1E291F70EC
:1000F00020692172227A236B24732574266C27755C
:10010000287D29712A792C7B2D7C2E0F3F453016B6
:10011000311E32263325342E3536363D373E3846AD
:1001200039523A413B4E3C493D4A3E0E401C413219
:10013000422143234424452B463447334843493B1B
:100140004A424B4B4C3A4D314E444F4D5015512D78
:10015000521B532C543C552A561D57225835591AB8
:100160005A4C5B5D5C545D5B5E555F618B0561065F
:100170006204630C6403650B6683670A680169099E
:100180006A786B076C086D106E186F2070287130DC
:1001900072387340744875507657775F786D605148
:1001A0009113926A9364946795F296F197639862BB
:1001B000995FA012BB7C041409110B1F0C270D2F93
:1001C0000E7E0F6C1169127D137A146B15741675FF
:1001D0001772187019711A5A2B4A2F4D79157A3BDC
:1001E0007B347C237D327E217F508048812B82406E
:1001F0008310843A853886308728882089188A3782
:100200008C3F8D5E9000640B11241FBECFEFD8E0B1
:10021000DEBFCDBF13E0A0E0B1E0E8E3F5E702C048
:1002200005900D92A437B107D9F726E0A4E7B3E013
:1002300001C01D92A03CB207E1F711E0C4E0D1E09B
:1002400004C02197FE010E94943AC330D107C9F738
:100250000E94350C0C949A3A0C9400008230D8F429
:10026000E82FF0E0EE0FFF1FE55CFC4F28EC35E0D7
:1002700031832083813041F0809169008C7F8260DE
:1002800080936900E89A089580916900837F88606F
:1002900080936900E99A0895833081F028F48130D1
:1002A00099F08230A9F008958730A9F08830C9F01C
:1002B0008430B1F4809180008F7D03C080918000F4
:1002C0008F7780938000089584B58F7784BD0895DB
:1002D00084B58F7DFBCF8091B0008F778093B00085
:1002E00008958091B0008F7DF9CF1F93CF93DF9356
:1002F000282F30E0F901E255FF4F8491F901E656CD
:10030000FF4FD491F901EA57FF4FC491CC23A9F0D4
:10031000162F81110E944C01EC2FF0E0EE0FFF1F11
:10032000E458FF4FA591B4918FB7F894EC91111157
:1003300008C0D095DE23DC938FBFDF91CF911F9152
:100340000895DE2BF8CFCF93DF9390E0FC01E656C3
:10035000FF4F24918A579F4FFC0184918823D1F04D
:1003600090E0880F991FFC01EE58FF4FA591B491C2
:10037000FC01E458FF4FC591D491623071F49FB7EE
:10038000F8943C91822F809583238C93E8812E2BC7
:1003900028839FBFDF91CF9108958FB7F894EC9198
:1003A0002E2B2C938FBFF6CF8E3008F08E50877097
:1003B000806480937C0080917A00806480937A00CE
:1003C00080917A0086FDFCCF809178009091790031
:1003D0000895CF92DF92EF92FF920F931F93CF93E6
:1003E000DF93EC016B018A018FA10E94D4019CA7CD
:1003F0008BA74DA55EA5481B590B5AA749A7495F76
:100400005F4F4F30510508F457C09EA78DA70D2CA4
:10041000000CEE08FF08012E000C220B330BA90183
:1004200098012C193D094E095F09DC010E94583AD8
:100430002FEF33E040E050E00E94393ABA01A901C1
:100440004C0D5D1D6E1D7F1DDB01CA012CE1B695B3
:10045000A795979587952A95D1F78E8FDB01CA01CD
:1004600035E1B595A795979587953A95D1F78F770B
:100470008F8FDB01CA01EEE0B595A795979587951B
:10048000EA95D1F78F7788A3DB01CA01F7E0B5952C
:10049000A79597958795FA95D1F78F7789A3242FFC
:1004A0002F772AA381E0DF91CF911F910F91FF90C9
:1004B000EF90DF90CF90089580E0F5CF3FB7F894AC
:1004C0008091920390919303A0919403B09195032E
:1004D00026B5A89B05C02F3F19F00196A11DB11D9F
:1004E0003FBFBA2FA92F982F8827BC01CD01620FDB
:1004F000711D811D911D42E0660F771F881F991F96
:100500004A95D1F708958F929F92AF92BF92CF9262
:10051000DF92EF92FF924B015C010E945E026B0141
:100520007C010E945E026C197D098E099F09683E5C
:10053000734081059105A8F321E0821A9108A10872
:10054000B10888EEC80E83E0D81EE11CF11C8114AE
:100550009104A104B10429F7FF90EF90DF90CF90B0
:10056000BF90AF909F908F9008950895AF92BF92E3
:10057000CF92DF92EF92FF920F931F93CF93DF936F
:100580006C017B018B01040F151FEB015E01AE189E
:10059000BF08C017D10759F06991D601ED91FC91C0
:1005A0000190F081E02DC6010995892B79F7C501ED
:1005B000DF91CF911F910F91FF90EF90DF90CF903F
:1005C000BF90AF900895FC01538D448D252F30E0EE
:1005D000842F90E0821B930B541710F0CF96089550
:1005E00001970895FC01918D828D981761F0A28D7D
:1005F000AE0FBF2FB11D5D968C91928D9F5F9F7343
:10060000928F90E008958FEF9FEF0895FC01918DF8
:10061000828D981731F0828DE80FF11D858D90E065
:1006200008958FEF9FEF0895FC01918D228D892F02
:1006300090E0805C9F4F821B91098F7399270895EA
:1006400081E296E00E94140321E0892B09F420E066
:10065000822F089580E090E0892B29F00E942003EA
:1006600081110C9400000895FC01A48DA80FB92FEE
:10067000B11DA35ABF4F2C91848D90E001968F73CA
:100680009927848FA689B7892C93A089B1898C91E9
:10069000837080648C93938D848D981306C0028838
:1006A000F389E02D80818F7D80830895EF92FF9202
:1006B0000F931F93CF93DF93EC0181E0888F9B8D85
:1006C0008C8D98131AC0E889F989808185FF15C03F
:1006D0009FB7F894EE89FF896083E889F989808162
:1006E0008370806480839FBF81E090E0DF91CF9131
:1006F0001F910F91FF90EF900895F62E0B8D10E053
:100700000F5F1F4F0F731127E02E8C8D8E110CC0C1
:100710000FB607FCFACFE889F989808185FFF5CF0C
:10072000CE010E943403F1CFEB8DEC0FFD2FF11DB4
:10073000E35AFF4FF0829FB7F8940B8FEA89FB8949
:1007400080818062CFCFCF93DF93EC01888D8823A7
:10075000B9F0AA89BB89E889F9898C9185FD03C024
:10076000808186FD0DC00FB607FCF7CF8C9185FF09
:10077000F2CF808185FFEDCFCE010E943403E9CF17
:10078000DF91CF9108951092880310928703109201
:100790008603109285031092AE031092AD0310925F
:1007A000840310929C031092970310928303089580
:1007B000909188039F5F963008F090E02091870326
:1007C000291751F0E92FF0E0E358FC4F8083909314
:1007D000880381E090E008958CEF9FEF0895CF9318
:1007E000DF9380937C0380937B03109284031092A9
:1007F0007A0380918303806C8093830380918603C6
:1008000087FD0DC08091860380FF09C0809185031C
:100810008093790380918303806180938303809127
:100820008903823009F441C0833061F4E99881E0A2
:1008300090E0880F991FFC01E55CFC4F85EB92E08E
:1008400091838083D0918A0361E08D2F0E9475018E
:1008500061E08D2F0E94A301C091890361E08C2F7C
:100860000E94750161E08C2F0E94A30183E290E059
:100870000197F1F760E08C2F0E9475018BEE90E0FC
:100880000197F1F760E08D2F0E94750162E08C2FD7
:100890000E94A30180E0C23021F08FEFC33009F441
:1008A00081E0DF91CF910C942E01E89890E080E0F8
:1008B000C0CF9091870380918803891799F1809127
:1008C00086038160809386038091860387FD2DC017
:1008D0008091830387FD29C0109285032FEF3FEF9E
:1008E0009F5F963008F090E0E92FF0E0E358FC4F6E
:1008F0002F3F320771F4208130E09093870380917D
:1009000088038913EDCF822F0E94EF0381E090E0EE
:10091000089580818B3BB9F7809185038F5F809329
:100920008503EBCF8EEF9FEF08958AE79FEF089541
:100930008DEE0E94D8038BEB0E94D8038091970321
:100940000E94D8038BEB0E94D803892B11F00C94E2
:10095000590408950F931F93CF93DF931091B80319
:100960008091B703181B17FD1C5F01E0133084F55D
:100970008091AE03A091AD038A1B87FD885F882319
:1009800019F18091AE03A817F9F0AF5FA83008F015
:10099000A0E0A093AD03B0E0AA0FBB1FA356BC4FCD
:1009A000CD91DC9111978D919C9192FDD2C02C2F0D
:1009B000CA3A20F08C2F815F823010F494FF1CC063
:1009C000DD27209709F0C7C090E080E0112379F07F
:1009D000E091B703EF5FE43008F0E0E0E093B703A5
:1009E000F0E0EE0FFF1FE155FC4F80819181DF9118
:1009F000CF911F910F91089580919C0395FF18C08E
:100A0000806880939C03D0E0C0E093FF1EC0FE018D
:100A1000ED54FE4FE4912E130DC0CC54DE4FFE0179
:100A2000C491D0E02097D1F480919C03D82BC9CFFA
:100A30008F77E7CF2296C235D10549F7D0E0C0E0E5
:100A4000F3CF2296CE3DD105C9F3FE01EB52FF4F05
:100A5000E4912E13F6CFCA52DF4FE1CF80919C0371
:100A6000FE01C430D10508F049C0E856FC4F87FFAD
:100A700004C01082CBEBD0E01BC090819130D1F349
:100A80000083C230D105A1F1C330D10541F182E02C
:100A900090919703292F282369F120919C03809539
:100AA000892380939703206820939C030E949804D5
:100AB00080919C0387FF04C09091960393FD65C0CD
:100AC0009E01205231092134310508F440C0CB3851
:100AD000D10509F43CC0816080939C03A5CF84FFBD
:100AE00005C08F7E80939C0384E0D2CF8061FACFD3
:100AF00081E0CECF892B80939703D8CF3697E8300B
:100B0000F10598F4E353FF4FE49187FF05C0E095AA
:100B1000E823E0939C03CCCF9E2F982321F0909163
:100B2000960397FDA7CFE82BF4CFFE01B097EB30EB
:100B3000F10508F0BDCF9091970391FF02C086FFA9
:100B4000B7CFEE53FF4FE491CE2FD0E0B1CF8E7FE1
:100B5000C3CFC6E0D0E0CE0199278B3B910509F4C5
:100B600005CF892B09F402CF8091B8038F5F8430C1
:100B70000CF080E0E82FEE0FFF0BE155FC4FD18326
:100B8000C0838093B8031F5FF1CECBEBD0E0E3CFFF
:100B9000CF92DF92EF92FF920F931F93CF93DF9349
:100BA0008091830386FF74C0809184038F5F80935C
:100BB0008403809184038A3048F4823098F560E0A1
:100BC000813009F448C010928403C4C08B3009F40A
:100BD0004EC0E8F18C30B9F780917B038E3E69F00E
:100BE00080917B038E3F49F080917B038093740357
:100BF00080918303826080938303809183038F7B42
:100C0000809383038091860387FF3EC08091860393
:100C10008F77809386038091830384FDD4CF0E94D5
:100C20005904D1CFC0917C03C1706C2F80918A038D
:100C30000E94750180917A03C80FC0937A03809156
:100C40007C0390E09595879580937C0383C06091A9
:100C50007A036095617080918A03DF91CF911F9133
:100C60000F91FF90EF90DF90CF900C94750162E0B0
:100C700080918A03DF91CF911F910F91FF90EF90A8
:100C8000DF90CF900C94A301809186038E7FC1CF1B
:100C900020918A0330E0F901E255FF4F8491F90178
:100CA000E656FF4FD491F901EA57FF4FC491CC2388
:100CB00079F081110E944C01EC2FF0E0EE0FFF1F44
:100CC000E859FF4FA591B491EC91ED2381E009F42F
:100CD00080E09FB7F89440918E0350918F0360910C
:100CE0009003709191039FBF00917503109176035B
:100CF00020917703309178036A017B01C01AD10AF1
:100D0000E20AF30A970186010B3F1105210531051F
:100D100020F01092840310927C034093750350934B
:100D200076036093770370937803909184039F5FB9
:100D300090938403909184039A30A8F4923028F51C
:100D4000913009F040CF10927A038091830380683C
:100D500080938303DF91CF911F910F91FF90EF90CC
:100D6000DF90CF9008959A3019F19B3009F02BCF86
:100D700080917A038D3F48F18EEF0E94EF038091BE
:100D800086038068809386031ECF90917A03980F24
:100D900090937A0320917C0330E03595279520933A
:100DA0007C0390E0811190E880917C03892B4CCFEB
:100DB00090917A03917090937A0390917A038913BA
:100DC000C9CF8DEF80937A03C5CF80917C038E3F8E
:100DD00029F0909183039D7F9093830390918303E7
:100DE00094FF02C0803F70F09091830392FD91C008
:100DF0008E3E09F477C0E8F48A3A09F47FC020F403
:100E0000882359F186E02CC0803E09F47BC0813EE6
:100E1000C9F78091830382FD1AC087E0809379032C
:100E200080918303846080938303809183038F7D0B
:100E30000CC08C3F09F44EC060F4803F19F781E08C
:100E4000809379038091830380628093830380E0A1
:100E500007C08E3FA9F18F3FA9F60E94C3038CE023
:100E600081FF05C0909179039150909379039091FF
:100E70007903191614F482FF1EC09091AE039F5F90
:100E8000983008F090E02091AD032917A1F020914F
:100E90007C03E92FF0E030E0EE0FFF1FE356FC4F3C
:100EA000318320834091830320813181342B31832E
:100EB00020839093AE03807171F180917B035DCFAD
:100EC0008091830381FFC3CF8091740380937B0360
:100ED00080E1C6CF109279031092830310928603AB
:100EE0008EE0BECF9091830391FF0AC0909174036E
:100EF0009E3E31F080937B0384E1B2CF1092790360
:100F000084E0AECF81E08093790380918303886091
:100F10009CCF82E0A5CF8091790318160CF453CEB4
:100F200080918303837C8093830310927903809163
:100F300083038F778093830372CECF93DF93EC018B
:100F40008FA10E94D4019CA78BA74DA55EA5495FE8
:100F50005F4F481B590B4F30510588F09EA78DA756
:100F60009C01AFE7B0E00E94853A2CEF33E040E00F
:100F700050E00E94393A822FDF91CF9108958FEF90
:100F8000FBCFFC01613031F4118E89E0838F84E363
:100F9000858FC7C0623019F4118E8AE0F7CF6330B5
:100FA00019F4118E8BE0F2CF643019F4118E8CE0BD
:100FB000EDCF653019F4118E8DE0E8CF663019F46D
:100FC000118E8EE0E3CF673019F4118E8FE0DECF03
:100FD000683019F4118E80E1D9CF693021F4118E77
:100FE000638F85E3D5CF6A30D1F36B30C1F36C30BA
:100FF000B1F36D30A1F36E3091F36F3081F3603156
:1010000071F3613129F4118E89E0838F86E3C0CFBB
:10101000623119F4118E8AE0F8CF633119F4118E20
:101020008BE0F3CF643119F4118E8CE0EECF653193
:1010300019F4118E8DE0E9CF663119F4118E8EE02E
:10104000E4CF673119F4118E8FE0DFCF683119F4E6
:10105000118E80E1DACF613229F4118E89E0838F1D
:1010600088E396CF623219F4118E8AE0F8CF6332AA
:1010700019F4118E8BE0F3CF643219F4118E8CE0E9
:10108000EECF653219F4118E8DE0E9CF663219F496
:10109000118E8EE0E4CF673219F4118E8FE0DFCF2E
:1010A000683219F4118E80E1DACF693229F4118E99
:1010B00089E0838F89E36CCF6A3219F4118E8AE05C
:1010C000F8CF6B3219F4118E8BE0F3CF6C3219F438
:1010D000118E8CE0EECF6D3219F4118E8DE0E9CFD8
:1010E0006E3219F4118E8EE0E4CF6F3219F4118E46
:1010F0008FE0DFCF603319F4118E80E1DACF6933EE
:1011000029F4118E89E0838F8BE342CF6A3319F47F
:10111000118E8AE0F8CF6B3331F4118E8BE0838F20
:10112000658F81E008956C3319F4118E8CE0EBCF5C
:101130006D3319F4118E8DE0E6CF6E3319F4118EF4
:101140008EE0E1CF6F3319F4118E8FE0DCCF603485
:1011500019F4118E80E1D7CF613429F4118E8FE11B
:10116000838F85E015CF623431F483E0818F86E090
:10117000838F158ED6CF6334A1F683E0818F86E10D
:10118000F7CFDC018D919C91DC01ED91FC910190F8
:10119000F081E02D09940F931F93CF93DF93EB0120
:1011A0008C01060F171F699180917B0590917C053A
:1011B0000E94C1080C171D07B1F7DF91CF911F9155
:1011C0000F910895E9E2F3E095E09787808BBF01E6
:1011D00082E190E00C94CB08E0E2F3E09EE4968399
:1011E0008783BF0189E090E00C94CB08EEE0F3E048
:1011F00095E09787808BBF0182E190E00C94CB084B
:10120000ECEFF2E016868787608BBF0182E190E009
:101210000C94CB08EAEEF2E016868787608BBF015C
:1012200082E190E00C94CB081F93CF93DF93215081
:10123000203108F5D42F162FC82F682F622B8091EC
:101240007B0590917C050E94C108612F6F7780918A
:101250007B0590917C050E94C108CF7EC03C59F06F
:101260006D2F6F7780917B0590917C05DF91CF91F9
:101270001F910C94C108DF91CF911F91089521E037
:1012800040E0682F80EC0C941409242F462F682F1F
:1012900080EB0C941409E2ECF2E08187608BBF01D3
:1012A00082E190E00C94CB08CF93C82F41E060E03E
:1012B00080E00E94450941E066E080E20E94450925
:1012C0008C2FCF910C943F09CF93C82F41E060E061
:1012D00080E00E94450941E069E080E20E94450902
:1012E0008C2FCF910C943F098093C00260EB72E089
:1012F00082E190E00C94CB088093AE026EE972E03C
:1013000082E190E00C94CB0880939C026CE872E040
:1013100082E190E00C94CB0880938A026AE772E045
:1013200082E190E00C94CB088093780268E672E04A
:1013300082E190E00C94CB088093660266E572E04F
:1013400082E190E00C94CB088093540264E472E054
:1013500082E190E00C94CB08E2E3F2E08787608BB7
:10136000BF0182E190E00C94CB08E0E2F2E08387D9
:10137000608BBF0182E190E00C94CB0880931E0249
:101380006EE072E082E190E00C94CB0880930C0256
:101390006CEF71E082E190E00C94CB088093FA014D
:1013A0006AEE71E082E190E00C94CB088093E80152
:1013B00068ED71E082E190E00C94CB08E6ECF1E09E
:1013C0008787608BBF0182E190E00C94CB08E4EB4F
:1013D000F1E08387608BBF0182E190E00C94CB0841
:1013E000E2EAF1E08787608BBF0182E190E00C9434
:1013F000CB08E0E9F1E08387608BBF0182E190E0F8
:101400000C94CB08EEE7F1E08787608BBF0182E1A7
:1014100090E00C94CB08ECE6F1E08787608BBF018D
:1014200082E190E00C94CB0880936A016AE571E058
:1014300082E190E00C94CB088093580168E471E05D
:1014400082E190E00C94CB08E6E3F1E08387608BC7
:10145000BF0182E190E00C94CB08E4E2F1E08787E1
:10146000608BBF0182E190E00C94CB08E2E1F1E0F7
:101470008787608BBF0182E190E00C94CB08E0E0AD
:10148000F1E0878361874387208BBF0182E190E091
:101490000C94CB081F920F920FB60F9211242F932A
:1014A0003F938F939F93AF93BF9380918E039091BF
:1014B0008F03A0919003B091910330918D0323E0AD
:1014C000230F2D3758F50196A11DB11D20938D03D3
:1014D00080938E0390938F03A0939003B093910316
:1014E0008091920390919303A0919403B0919503FE
:1014F0000196A11DB11D8093920390939303A09335
:101500009403B0939503BF91AF919F918F913F91B9
:101510002F910F900FBE0F901F90189526E8230F64
:101520000296A11DB11DD2CF1F920F920FB60F923E
:1015300011242F933F934F935F936F937F938F93D8
:101540009F93AF93BF93EF93FF93E0913D03F0918F
:101550003E030995FF91EF91BF91AF919F918F91BC
:101560007F916F915F914F913F912F910F900FBE9F
:101570000F901F9018951F920F920FB60F92112483
:101580002F933F934F935F936F937F938F939F938B
:10159000AF93BF93EF93FF93E0913B03F0913C0334
:1015A0000995FF91EF91BF91AF919F918F917F919D
:1015B0006F915F914F913F912F910F900FBE0F90C0
:1015C0001F9018951F920F920FB60F9211242F9310
:1015D0003F934F935F936F937F938F939F93AF93BB
:1015E000BF93EF93FF9381E296E00E943403FF9153
:1015F000EF91BF91AF919F918F917F916F915F918B
:101600004F913F912F910F900FBE0F901F90189503
:101610001F920F920FB60F9211242F938F939F93C7
:10162000EF93FF93E0913106F09132068081E091D3
:101630003706F091380682FD1BC0908180913A06F2
:101640008F5F8F7320913B06821741F0E0913A063D
:10165000F0E0EF5DF94F958F80933A06FF91EF919F
:101660009F918F912F910F900FBE0F901F90189503
:101670008081F4CF0F931F93CF93DF93EC01862FDC
:10168000142F022F92E1EFE3F3E0DE0101900D92BF
:101690009A95E1F792E1EFE3F3E0DE0152960190D3
:1016A0000D929A95E1F76FA348A70E94D401887F15
:1016B0009EA78DA79CA78BA71CA21DA30EA3DF919D
:1016C000CF911F910F910895E1E2F6E0138212820B
:1016D00088EE93E0A0E0B0E084839583A683B7838F
:1016E00085E693E09183808385EC90E095878487FD
:1016F00084EC90E09787868780EC90E0918B808BDC
:1017000081EC90E0938B828B82EC90E0958B848BC4
:1017100086EC90E0978B868B118E128E138E148E32
:10172000F093BF06E093BE06E1E5F5E0118210827A
:1017300013821282158214821782168211861086F5
:10174000138612861586148617861686118A108AC5
:10175000138A128A158A148A178A168A118E108E95
:10176000138E128E158E148E178E168E11A210A245
:1017700013A212A215A214A217A216A211A610A6B5
:101780008EEB96E093A782A714A615A616A613AA19
:1017900012AA15AA14AA8FEF9FEF97AB86AB91AF51
:1017A00080AF83E080938B0513AE14AE15AE16AEFA
:1017B00010921006E0E9F5E080E8DF011D928A95BD
:1017C000E9F7109213061092140610921506109263
:1017D000160610921706109218061092190610920B
:1017E0001A0610921B0610921C0610921D061092EB
:1017F0001E0610921F061092200621E049E46EE0BA
:101800008EE195E00E943A0B21E048E46FE08BEE18
:1018100094E00E943A0B21E04AE460E188EB94E016
:101820000E943A0B21E047E461E185E894E00E94E0
:101830003A0B21E045E062E182E594E00E943A0B38
:1018400021E047E063E18FE194E00E943A0B2AE057
:1018500047E064E18CEE93E00E943A0B20E147E020
:1018600065E189EB93E00C943A0B789484B582603F
:1018700084BD84B5816084BD85B5826085BD85B534
:10188000816085BD80916E00816080936E001092B2
:10189000810080918100826080938100809181002D
:1018A00081608093810080918000816080938000BE
:1018B0008091B10084608093B1008091B00081601C
:1018C0008093B00080917A00846080937A00809148
:1018D0007A00826080937A0080917A0081608093A0
:1018E0007A0080917A00806880937A001092C1001B
:1018F000E0917B05F0917C050190F081E02DA089BD
:10190000B189C2E0CC93A485B5851C92A685B78524
:101910008FE38C93108EA489B58986E08C93A2897D
:10192000B3898C9180618C93A289B3898C918860F2
:101930008C93A289B3898C9180688C930288F389F7
:10194000E02D80818F7D808310927D0510927F0530
:1019500010927E05109286051092850510928405DE
:10196000109283058FEF9FEF9093880580938705F2
:1019700090938A05809389052FB7F89480918E0300
:1019800090918F03A0919003B09191032FBF80930A
:10199000130690931406A0931506B09316061092A2
:1019A000100610928D0510928C0510928E051092E3
:1019B0008F05109212061092110680918B0581708E
:1019C0008260816080938B050E94C303C0938A0369
:1019D00083E08093890362E00E94A30162E082E0D9
:1019E0000E94A30181E00E942E0164EF71E080E07B
:1019F00090E00E9483028091960380688093960312
:101A0000C093970380919C038F7E80939C030E94D8
:101A100098040E94AA04FDE03F2E44244A94A3E0C7
:101A20005A2E612C712CB0E08B2EB0E09B2ED9E4A5
:101A3000C8E4CC2E1CE0E12E67E4D62E7DE5F72E1F
:101A4000EFE02E2EC0E10E94AA048D3422E192071D
:101A500011F40C94BD2F10F00C941B1A8933F8E08C
:101A60009F0711F40C94552808F004C78436E1E070
:101A70009E0711F40C94933108F0C0C38A34910589
:101A800011F40C94482A08F039C28333910511F4FB
:101A90000C94DA2908F0B0C18832910511F40C9445
:101AA000E32708F06FC18332910511F40C94F627F7
:101AB00008F053C18032910511F40C94CB2708F043
:101AC0003FC1069711F40C94972651E5A52E53E0DB
:101AD000B52EF501019111915F01F80184A18111E9
:101AE0000BC0C8010E949D078F3F31F0F80146A14D
:101AF000682F85A10E944509F80184A1813001F574
:101B000087A10E94D401F80194A783A725A536A533
:101B1000281B390B32A721A7295F3F4F2F303105F2
:101B200078F09C01287F36A725A743E096958795F6
:101B30004A95E1F7808BB80182E190E00E94CB08E2
:101B4000F80184A18330F1F587A10E94D401F80146
:101B500094A783A745A556A5495F5F4F481B590B1E
:101B60004F30510510F40C94353A96A785A79C0187
:101B7000AFEFBFE30E94853AA30192010E94393A78
:101B8000BA01A901505261097109CA01F80152ABA9
:101B900041ABF80194A783A727A530A98217930723
:101BA00089F090AB87A761A972A9705EAB01440F61
:101BB000452F441F550B51954F776F7726A180EE27
:101BC0000E941409F80184A1853081F443E650E0B5
:101BD0006DE97FEFC8010E94E901882339F0B8015F
:101BE0006E5E7F4F82E190E00E94CB08F80184A1F5
:101BF000863029F587A10E94D401F80194A783A714
:101C000045A556A5495F5F4F481B590B4F305105FD
:101C1000B0F096A785A79C01A3E6B0E00E94853AA4
:101C2000A30192010E94393A2F5F3F4F4F4F5F4F00
:101C3000F801208BB80182E190E00E94CB08F80106
:101C400084A18730E9F487A10E94D401F80194A708
:101C500083A725A536A5281B390B32A721A7295F05
:101C60003F4F2F30310560F09C01287F36A725A714
:101C7000892F8695808BB80182E190E00E94CB0885
:101C8000F80184A1883001F587A10E94D401F801F0
:101C900094A783A725A536A5281B390B32A721A712
:101CA000295F3F4F2F30310578F09C01287F36A700
:101CB00025A723E0969587952A95E1F7808BB801B3
:101CC00082E190E00E94CB08F80184A1893081F480
:101CD00042E050E06EEF7FEFC8010E94E9018823E7
:101CE00039F0B8016E5E7F4F82E190E00E94CB0830
:101CF000F80184A18A3091F4C8010E949D078F3FAA
:101D000069F0682F70E066507F4F759567957595FF
:101D10006795F80146A185A10E94450981E693E0F7
:101D20008A159B0509F0D5CE8114910409F48BCE58
:101D30000E942003882309F47FCE0E9400007CCEFD
:101D40008132910511F40C94E927829709F0BDCEF8
:101D500060E089E00E94240AB8CE8532910511F432
:101D60000C94DD2710F40C94D7278632910511F4DA
:101D70000C940F28879709F0A8CE61E088E00E94B4
:101D8000240AA3CE8D32910511F40C940328A8F4F3
:101D90008A32910511F40C94D12710F40C9409287F
:101DA0008B32910511F40C94EF278C9709F08DCEAE
:101DB00065E081E00E94240A88CE8033910511F409
:101DC0000C94F82968F48E32910511F40C94FD27D7
:101DD0008F9709F07ACE60E082E00E94240A75CEE7
:101DE0008133910511F40C94D529C29709F06DCE79
:101DF00089E60E949C0969CE8E33910511F40C94FA
:101E00007F2AC0F58833910511F40C94EE29A0F4D3
:101E10008533910511F40C94E42910F40C94DF2916
:101E20008633910511F40C94E929C79709F04DCE3A
:101E30008EE60E949C0949CE8B33910511F40C94D7
:101E40007A2A60F48933910511F40C94F329CA9726
:101E500009F03BCE8DE00E94940937CE8C3391057A
:101E600011F40C94FD29CD9709F02FCE87E10E9443
:101E700094092BCE8434910511F40C94392AF0F492
:101E80008134910511F40C942F2A58F48034910573
:101E900009F01BCE21E042E062E082E00E943F0AAE
:101EA00014CE8234910511F40C94702A8334910578
:101EB00009F00BCE81E10E94940907CE8734910589
:101EC00011F40C943E2A68F48534910511F40C94B5
:101ED000072A8634910509F0F8CD86E00E9494091E
:101EE000F4CD8834910511F40C94432A893491057A
:101EF00009F0EBCD8DE70E949C09E7CD8B38910569
:101F000011F40C945C2A08F07CC08535910511F41D
:101F10000C94112AD8F58F34910511F40C94162ADB
:101F2000A8F48C34910511F40C94522A10F40C94FA
:101F30004D2A8D34910511F40C94752A8E34910537
:101F400009F0C3CD84E10E949409BFCD823591058B
:101F500011F40C940C2A68F48035910511F40C945A
:101F60001B2A8135910509F0B0CD86E70E949C09B6
:101F7000ACCD8335910511F40C94342A8435910548
:101F800009F0A3CD8AE70E949C099FCD8A3591056F
:101F900011F40C94612AA8F48735910511F40C947E
:101FA000022A10F40C946B2A8835910511F40C94D4
:101FB000662A8935910509F088CD8BE70E949C0936
:101FC00084CD8D35910511F40C94252A68F48B3558
:101FD000910511F40C94572A8C35910509F075CDB3
:101FE00084E70E949C0971CD8E35910511F40C9403
:101FF0002A2A8F35910509F068CD83E70E949C0954
:1020000064CD883121E0920711F40C940E2608F07B
:1020100051C08231F1E09F0711F40C94D12600F5F4
:102020008430E1E09E0711F40C94682650F482306D
:10203000914009F04ACD41E06FE782E40E944509F2
:1020400044CD8E30E1E09E0711F40C94C626813118
:10205000914009F03ACD6FE78BE00E94240A35CD1C
:10206000853121E0920711F40C941B2678F483311A
:10207000F1E09F0711F40C94CB268431914009F0D4
:1020800024CD67E48BE00E94240A1FCD8631E1E075
:102090009E0709F458C78731914009F016CD809109
:1020A0008C038F3708F011CD8F5F80938C030E94D3
:1020B0003F090BCD8D3121E0920711F40C942928B2
:1020C000B8F48A31F1E09F0711F40C94DF2610F484
:1020D0000C94D7268B31E1E09E0711F40C94EA337F
:1020E0008C31914009F0F1CC85E70E949C09EDCC40
:1020F000813621E0920711F40C941431C8F48E312A
:10210000F1E09F0711F40C94202A8F31914009F0DF
:10211000DCCC8091E902882311F40C9456261092AD
:10212000E90221E04AE062E082E00E943F0ACDCC71
:102130008236E1E09E0711F40C945A3183369140C7
:1021400009F0C3CC35E030934205D093430581E0DC
:102150008093440522E02093370595E1909339055B
:1021600046E040933B0530930F054BE44093100548
:1021700080931105209304059093060547E0409352
:1021800008053093DC0456E45093DD048093DE04AC
:102190002093D1049093D30458E05093D504309306
:1021A000A904C092AA048093AB0420939E04909348
:1021B000A00459E05093A204309376043FE4309396
:1021C00077048093780420936B0490936D0494E0DB
:1021D00090936F0410924304409344048093450409
:1021E00010921004409311048AE08093120410921C
:1021F000DD034093DE03C093DF0367CC873422E026
:10220000920711F40C948D2908F0E5C18932F2E0AF
:102210009F0711F40C94932B08F046C18D38E1E030
:102220009E0711F40C94B23308F0C0C0893621E047
:10223000920711F40C94D33208F06EC08636F1E0A8
:102240009F0711F40C941B3210F40C94CC31873698
:10225000E1E09E0711F40C9477328836914009F042
:1022600034CC87E08093420596E19093430521E0CA
:102270002093440532E0309325059AE0909327059A
:1022800045E04093290580930F0547E140931005F1
:10229000209311053093F2049093F40446E04093A8
:1022A000F6048093DC0448E14093DD042093DE04CF
:1022B0003093BF049093C1048093C3048093A90416
:1022C000F092AA042093AB0430938C0490938E0474
:1022D00048E040939004809376044BE54093770464
:1022E000209378043093590490935B0439E0309341
:1022F0005D0410924304809344042093450410929B
:10230000100480931104909312041092DD038093C3
:10231000DE03C093DF03D9CB8B3621E0920711F4A3
:102320000C94423310F40C940A338C36F1E09F077E
:1023300011F40C947A338C38914009F0C6CB10928A
:102340004205F0924305C093440510920F058BE5BA
:1023500080931005C09311051092DC048CE58093E6
:10236000DD0481E08093DE041092A9049EE5909341
:10237000AA048093AB0410927604E09277048093D1
:1023800078041092430497E09093440480934504AA
:1023900010921004909311048AE08093120410921A
:1023A000DD039093DE03C093DF038FCB8332E2E043
:1023B0009E0711F40C947B2B08F051C0803222E070
:1023C000920711F40C946F2BD8F58039914009F0E5
:1023D0007CCB10924205D0934305C09344051092E4
:1023E0000F058BE480931005C09311051092DC0457
:1023F0008AE48093DD04C093DE041092A904D09295
:10240000AA04C093AB0483E08093760487E08093B2
:102410007704C0937804109243048093440491E0BD
:102420009093450410921004809311049AE09093C5
:1024300012041092DD038093DE03C093DF0345CBCB
:10244000813222E0920711F40C94752B8232924073
:1024500009F03BCB68E286E40E94000936CB863265
:10246000F2E09F0711F40C94872B78F48432E2E0B9
:102470009E0711F40C94812B8532924009F025CBF4
:1024800068E382E60E94000920CB873222E09207AF
:1024900011F40C948D2B8832924009F016CB60E336
:1024A0008DE60E94000911CB8A33F2E09F0711F4F8
:1024B0000C94AB2908F04BC08433E2E09E0711F482
:1024C0000C941529F8F4813322E0920711F40C944E
:1024D000092948F48033924009F0F7CA6DE385E09A
:1024E0000E940B0AF2CA823322E0920711F40C9484
:1024F0000F298333924009F0E8CA61E485E00E9425
:102500000B0AE3CA8733F2E09F0711F40C942129E8
:1025100078F48533E2E09E0711F40C941B2986338E
:10252000924009F0D2CA66E385E00E940B0ACDCA48
:10253000883322E0920711F40C94272989339240C2
:1025400009F0C3CA6CE385E00E940B0ABECA81345D
:10255000F2E09F0711F40C947B29C0F48C33E2E085
:102560009E0711F40C942D2910F40C94C9298D3375
:1025700022E0920711F40C94CF298E33924009F097
:10258000A4CA6CE485E00E940B0A9FCA8434F2E07E
:102590009F0711F40C94872978F48234E2E09E07B7
:1025A00011F40C94BD298334924009F08ECA67E47B
:1025B00085E00E940B0A89CA853422E0920711F453
:1025C0000C9445298634924009F07FCA66E285E082
:1025D0000E940B0A7ACA8D35F2E09F0711F40C9421
:1025E0006F2908F090C08235E2E09E0711F40C9448
:1025F0004B2908F044C08C3422E0920711F40C946B
:102600009F29C0F48934F2E09F0711F40C945D29EE
:1026100010F40C9493298A34E2E09E0711F40C9490
:1026200099298B34924009F050CA6AE285E00E94F1
:102630000B0A4BCA8F3422E0920711F40C946329E1
:1026400078F48D34F2E09F0711F40C94C3298E3492
:10265000924009F03ACA60E184E10E940B0A35CA4F
:102660008035E2E09E0711F40C946929813592408F
:1026700009F02BCA6DE285E00E940B0A26CA873555
:1026800022E0920711F40C943F29C0F48435F2E063
:102690009F0711F40C94512910F40C94812985356D
:1026A000E2E09E0711F40C9457298635924009F018
:1026B0000CCA60E084E10E940B0A07CA8A3522E056
:1026C000920711F40C94272978F48835F2E09F07DB
:1026D00011F40C94B7298935924009F0F6C969E1E3
:1026E00084E10E940B0AF1C98B35E2E09E0711F4E8
:1026F0000C94A5298C35924009F0E7C969E385E07F
:102700000E940B0AE2C98D3823E0920711F40C9461
:10271000242808F065C08C31F3E09F0711F40C9475
:102720003929D8F58F35E2E09E0711F40C9433294E
:1027300010F40C9475298B3822E0920711F40C9454
:10274000B1298E30934009F0C0C982E00E94EC08A4
:1027500020E048E062E182E00E943F0A24E647E090
:1027600062E182E00E943F0A24E649E062E182E001
:102770000E943F0A24E644E062E182E00E943F0AB0
:1027800024E646E062E182E00E943F0A24E64BE054
:1027900062E182E00E943F0A98C98B36F3E09F070E
:1027A00011F40C941A2870F48936E3E09E0711F4B2
:1027B0000C9415288A36934009F087C981E00E945D
:1027C0001C0A83C98C3623E0920711F40C941F284D
:1027D0008C38934009F079C986E00E941C0A75C9BB
:1027E0008333F8E09F0711F40C943D28F0F4803314
:1027F000E8E09E0711F40C945B2840F48039934084
:1028000009F063C984E00E941C0A5FC98133E8E0D3
:102810009E0711F40C9437288233984009F055C96B
:1028200069E685E00E94360A50C9863328E092079F
:1028300011F40C94492878F48433F8E09F0711F4DC
:102840000C9443288533984009F03FC96BE585E037
:102850000E94360A3AC98733E8E09E0711F40C94C7
:102860004F288833984009F030C960E083E00E9427
:10287000360A2BC9813520E1920711F40C94D12D31
:1028800008F065C28432F0E19F0711F40C944F2DDB
:1028900008F023C18035E8E09E0711F40C949128DC
:1028A00008F089C0853428E0920711F40C94792847
:1028B000F0F58E33F8E09F0711F40C940329C0F46F
:1028C0008B33E8E09E0711F40C94FD2810F40C946F
:1028D000CD288C3328E0920711F40C9461288D33B5
:1028E000984009F0F2C86FE086E00E94360AEDC811
:1028F0008234F8E09F0711F40C94EB2848F48134FB
:10290000984009F0E2C866E383E00E94360ADDC819
:102910008334F8E09F0711F40C94DF288434984046
:1029200009F0D3C86CE483E00E94360ACEC88A342A
:10293000E8E09E0711F40C94BB28C0F4873428E02B
:10294000920711F40C94AF2810F40C94A928883441
:10295000F8E09F0711F40C94B5288934984009F0E9
:10296000B4C86CE085E00E94360AAFC88D34E8E058
:102970009E0711F40C94F72878F48B3428E0920722
:1029800011F40C94C1288C34984009F09EC86AE375
:1029900084E00E94360A99C88E34F8E09F0711F44B
:1029A0000C94F1288F34984009F08FC86BE185E0D2
:1029B0000E94360A8AC88B35E8E09E0711F40C9411
:1029C000C72808F044C0853528E0920711F40C941C
:1029D0008B28C0F48235F8E09F0711F40C947F280F
:1029E00010F40C9473288335E8E09E0711F40C94DE
:1029F000A3288435984009F068C861E085E00E940A
:102A0000360A63C8883528E0920711F40C94D92857
:102A100078F48635F8E09F0711F40C94E5288735A3
:102A2000984009F052C864E784E00E94360A4DC815
:102A30008935E8E09E0711F40C9485288A35984082
:102A400009F043C862E080E00E94360A3EC88B3835
:102A500028E0920711F40C94D328C0F48D35F8E0E7
:102A60009F0711F40C94972810F40C9467288E3566
:102A7000E8E09E0711F40C949D288F35984009F0EA
:102A800024C86EE083E00E94360A1FC8813220E12C
:102A9000920711F40C945B2D78F48C31F9E09F07C8
:102AA00011F40C946D288032904109F00EC861E059
:102AB00087E00E94F90909C88232E0E19E0711F41B
:102AC0000C94612D8332904111F00C94650D60E0FF
:102AD0008AE00E94F9090C94650D8A3320E192077F
:102AE00011F40C94302E08F09CC08F32F0E19F0757
:102AF00011F40C94672D08F04AC08932E0E19E077A
:102B000011F40C94732DD0F4863220E1920711F465
:102B10000C94792D10F40C94552D8732F0E19F0719
:102B200011F40C94432D8832904111F00C94650DF2
:102B300060E086E00E94F9090C94650D8C32E0E1BA
:102B40009E0711F40C947F2D88F48A3220E19207BD
:102B500011F40C94492D8B32904111F00C94650DB9
:102B600061E08AE00E94F9090C94650D8D32F0E174
:102B70009F0711F40C946D2D8E32904111F00C943E
:102B8000650D61E082E00E94F9090C94650D8433C3
:102B9000E0E19E0711F40C94F630D0F4813320E18B
:102BA000920711F40C94EA3010F40C940E31823335
:102BB000F0E19F0711F40C94F0308333904111F051
:102BC0000C94650D68E389E00E94F0090C94650D92
:102BD0008733E0E19E0711F40C94023188F48533C9
:102BE00020E1920711F40C94FC308633904111F0EF
:102BF0000C94650D6BE389E00E94F0090C94650D5F
:102C00008833F0E19F0711F40C9408318933904127
:102C100011F00C94650D6EE389E00E94020A0C9499
:102C2000650D8634E0E19E0711F40C94122E08F035
:102C300047C0803420E1920711F40C94DE2BC8F4D5
:102C40008C33F0E19F0711F40C94C72D10F40C9411
:102C50004E2E8D33E0E19E0711F40C94532E8E33EB
:102C6000904111F00C94650D88E10E94CE090C94FE
:102C7000650D833420E1920711F40C943F2E80F40B
:102C80008134F0E19F0711F40C94032E82349041BB
:102C900011F00C94650D83E10E94CE090C94650D32
:102CA0008434E0E19E0711F40C940D2E853490419C
:102CB00011F00C94650D88E70E94D6090C94650DFF
:102CC0008B3420E1920711F40C94212EC8F488343F
:102CD000F0E19F0711F40C941C2E10F40C94172EA5
:102CE0008934E0E19E0711F40C94EA2D8A34904176
:102CF00011F00C94650D89E00E94CE090C94650DCD
:102D00008E3420E1920711F40C94492E80F48C3417
:102D1000F0E19F0711F40C94262E8D34904111F0B0
:102D20000C94650D85E10E94CE090C94650D8F34DD
:102D3000E0E19E0711F40C94EF2D8035904111F0E5
:102D40000C94650D8FE70E94D6090C94650D8936A9
:102D500021E1920711F40C94433508F01CC2823132
:102D6000F1E19F0711F40C94482C08F0CAC08B3590
:102D7000E0E19E0711F40C942B2EC8F5863520E176
:102D8000920711F40C94442EC8F48335F0E19F07A8
:102D900011F40C94082E10F40C94DB2D8435E0E132
:102DA0009E0711F40C94E02D8535904111F00C94A0
:102DB000650D8CE70E94D6090C94650D883520E1DD
:102DC000920711F40C943A2E10F40C94D62D8935F8
:102DD000F0E19F0711F40C94E52D8A35904111F034
:102DE0000C94650D8FE00E94CE090C94650D8B3814
:102DF000E0E19E0711F40C94352EC8F48D3520E1E6
:102E0000920711F40C94F92D10F40C94CC2D8E35FE
:102E1000F0E19F0711F40C94FE2D8F35904111F0D5
:102E20000C94650D83E70E94D6090C94650D8430DF
:102E3000E1E19E0711F40C94682608F043C082304B
:102E400021E1920711F40C94EF278330914111F0A6
:102E50000C94650D1092420587E08093430581E054
:102E60008093440510920F05D093100580931105AF
:102E70001092DC049BE49093DD048093DE041092B6
:102E8000A90496E49093AA048093AB04109276046C
:102E9000C092770480937804109243049FE4909347
:102EA000440480934504109210049AE49093110412
:102EB000809312041092DD03D092DE038093DF032F
:102EC0000C94650D8E30F1E19F0711F40C94B02B3A
:102ED0008131914111F00C94650D2CE048E769E3D4
:102EE00080E90E94140964E670E080E090E00E94AE
:102EF00083022CE040E069E380E80E9414090C940E
:102F0000650D8D31E1E19E0711F40C94E62B08F07C
:102F10005DC0873121E1920709F4C1C808F5843109
:102F2000F1E19F0711F40C945C2C10F40C94202C0C
:102F30008531E1E19E0711F40C941B268631914105
:102F400011F00C94650D80918C03863710F00C9471
:102F5000650D865F80938C030E943F090C94650D7C
:102F60008A3121E1920711F40C94342CF8F4883161
:102F7000F1E19F0711F40C940E268931914111F073
:102F80000C94650D2CE048E76CE380E90E9414097D
:102F900064E670E080E090E00E9483022CE040E074
:102FA0006CE380E80E9414090C94650D8B31E1E11B
:102FB0009E0711F40C9424368C31914111F00C943D
:102FC000650D85E70E94D6090C94650D833621E1D5
:102FD000920711F40C94603408F04BC08F31F1E18A
:102FE0009F0711F40C94B52B10F40C94F42D81363A
:102FF000E1E19E0709F42ECF8236914111F00C9445
:10300000650D1092420587E08093430582E080932E
:10301000440510920F05D09310058093110510926E
:10302000DC049BE49093DD048093DE041092A904F9
:1030300096E49093AA048093AB0410927604C09215
:10304000770480937804109243049FE4909344049F
:1030500080934504109210049AE490931104809395
:1030600012041092DD03D092DE038093DF030C94F0
:10307000650D863621E1920711F40C94D03408F0E6
:1030800044C08436F1E19F0711F40C9498348536DE
:10309000914111F00C94650D1092420581E08093EE
:1030A00043058093440510920F0592E0909310051C
:1030B000809311051092DC04C093DD048093DE043C
:1030C0001092A9049AE09093AA048093AB04109202
:1030D000760428E0209377048093780410924304C8
:1030E00025E02093440480934504909310049CE4CD
:1030F00090931104809312041092DD039DE4909349
:10310000DE038093DF030C94650D8736E1E19E07B3
:1031100011F40C9409358836914111F00C94650D29
:103120001092420591E09093430584E0809344051A
:1031300010920F0522E0209310058093110523E0E3
:103140002093DC0436E13093DD049093DE0410928A
:10315000A90437E13093AA049093AB04109276044B
:1031600038E130937704909378042093430490934C
:10317000440480934504109210049CE4909311043D
:10318000809312041092DD039DE49093DE038093FC
:10319000DF030C94650D853322E1920711F40C9442
:1031A000092F08F0ACC08432F2E19F0711F40C94AF
:1031B000543008F05AC08D38E1E19E0711F40C94A8
:1031C0000A2C50F58B3621E1920711F40C94B4359A
:1031D00010F40C947B358C36F1E19F0711F40C94BC
:1031E000EB358C38914111F00C94650D6BE084E067
:1031F0000E94B50960E081E20E94B5096AE689E0B3
:103200000E94AC0961E08BE20E94B5096FE782E0A1
:103210000E94B5090C94650D8132E2E19E0711F41C
:103220000C94483088F4803921E1920711F40C9411
:10323000F42B8032924111F00C94650D60E68DE51F
:103240000E940A090C94650D8232F2E19F0711F485
:103250000C944E308332924111F00C94650D60E174
:103260008EE40E940A090C94650D8932E2E19E0702
:1032700011F40C946C30D0F4863222E1920711F4F0
:103280000C94603010F40C945A308732F2E19F07AE
:1032900011F40C9466308832924111F00C94650D53
:1032A00060E38DE60E940A090C94650D8233E2E129
:1032B0009E0711F40C94FD2E88F4803322E19207CE
:1032C00011F40C94212F8133924111F00C94650D6F
:1032D0006EE782E00E94DE090C94650D8333F2E113
:1032E0009F0711F40C94032F8433924111F00C9436
:1032F000650D61E083E00E94DE090C94650D823467
:10330000E2E19E0711F40C94B12F08F04AC08A3311
:1033100022E1920711F40C94932FD0F48733F2E159
:103320009F0711F40C94152F10F40C940F2F883371
:10333000E2E19E0711F40C941B2F8933924111F0A6
:103340000C94650D67E083E00E94DE090C94650D26
:103350008D3322E1920711F40C94C92F88F48B333A
:10336000F2E19F0711F40C94C32F8C33924111F0BA
:103370000C94650D6BE585E00E94DE090C94650DEB
:103380008E33E2E19E0711F40C94CF2F81349241E9
:1033900011F00C94650D60E683E00E94DE090C9448
:1033A000650D873422E1920711F40C947B2FD0F441
:1033B0008434F2E19F0711F40C94752F10F40C94EF
:1033C000AB2F8534E2E19E0711F40C943F2F863435
:1033D000924111F00C94650D61E284E00E94DE09D7
:1033E0000C94650D8A3422E1920711F40C94872F16
:1033F00088F48834F2E19F0711F40C94812F89340A
:10340000924111F00C94650D65E183E00E94DE09A4
:103410000C94650D8B34E2E19E0711F40C948D2F12
:103420008C34924111F00C94650D6CE384E00E94A1
:10343000DE090C94650D853520E3920711F40C9498
:10344000BE2C08F041C68934F0E29F0711F40C94B9
:10345000532708F080C38636E5E19E0711F40C94EB
:10346000A23008F0D8C18C3123E1920711F40C94FA
:10347000332F08F08BC08735F2E19F0711F40C94CD
:10348000392FD8F58235E2E19E0711F40C94452FCF
:10349000D0F48F3422E1920711F40C945D2F10F4D4
:1034A0000C94B72F8035F2E19F0711F40C94632F31
:1034B0008135924111F00C94650D69E685E00E941A
:1034C000DE090C94650D8435E2E19E0711F40C943D
:1034D0004B2F10F40C946F2F853522E1920711F4D5
:1034E0000C94572F8635924111F00C94650D6BE2C8
:1034F00083E00E94DE090C94650D8C35F2E19F0794
:1035000011F40C942D2FD0F48935E2E19E0711F4CB
:103510000C94512F10F40C94A52F8A3522E19207B8
:1035200011F40C949F2F8B35924111F00C94650D82
:1035300064E784E00E94DE090C94650D8F35F2E1AA
:103540009F0711F40C94272F88F48D35E2E19E0734
:1035500011F40C94692F8E35924111F00C94650D85
:1035600069E183E00E94DE090C94650D8B3822E14D
:10357000920711F40C94992F8E30934111F00C9412
:10358000650D80E00E94EC080C94650D8B36F3E12C
:103590009F0711F40C94D52E08F0ECC08536E3E1BA
:1035A0009E0711F40C94CB3608F089C0823623E1D3
:1035B000920711F40C945B36F0F58136934111F0CB
:1035C0000C94650D1092420587E08093430591E0CD
:1035D0009093440510920F058093100592E090930C
:1035E00011051092DC048093DD0493E09093DE04D7
:1035F0001092A9048093AA0494E09093AB041092D3
:1036000076048093770495E09093780410924304B5
:10361000809344049AE090934504109210048093A0
:103620001104E09212041092DD038093DE03C09334
:10363000DF030C94650D833623E1920711F40C949B
:1036400093368436934111F00C94650D1092420527
:10365000C092430581E08093440510920F05C0920B
:10366000100582E0809311051092DC04C092DD0405
:1036700083E08093DE041092A904C092AA0484E03F
:103680008093AB0410927604C092770485E0809317
:103690007804109243048BE4809344049AE090935E
:1036A00045041092100480931104E09212041092C9
:1036B000DD038093DE03C093DF030C94650D883631
:1036C000F3E19F0711F40C943C3708F043C08636B1
:1036D000E3E19E0711F40C9404378736934111F00F
:1036E0000C94650D10924205F092430581E08093A1
:1036F000440510920F05F092100582E080931105A9
:103700001092DC04F092DD0483E08093DE041092DA
:10371000A904F092AA0484E08093AB04109276048A
:10372000F092770485E08093780410924304F0923D
:1037300044048AE08093450410921004F09211042E
:10374000E09212041092DD03F092DE03C093DF03D7
:103750000C94650D893623E1920711F40C94D02E58
:103760008A36934111F00C94650D81E00E94BE09E8
:103770000C94650D8B31F5E19F0711F40C94E43046
:1037800008F58C38E3E19E0711F40C94DF2E50F419
:103790008C36934111F00C94650D83E00E94BE09B4
:1037A0000C94650D8D38E3E19E0711F40C94DA2E2C
:1037B0008039934111F00C94650D84E00E94BE099C
:1037C0000C94650D833625E1920711F40C94843036
:1037D00088F48136F5E19F0711F40C947830823635
:1037E000954111F00C94650D61E08AE00E944B094F
:1037F0000C94650D8436E5E19E0711F40C9490302D
:103800008536954111F00C94650D61E08DE00E94C4
:103810004B090C94650D813320E2920711F40C944E
:10382000052708F0FCC08336F9E19F0711F40C94DA
:103830007E3008F0AAC08B36E5E19E0711F40C94A7
:10384000CC30D0F4883625E1920711F40C94B430D2
:1038500010F40C94A8308936F5E19F0711F40C940C
:10386000C0308A36954111F00C94650D61E082E11B
:103870000E944B090C94650D8B31E9E19E0711F410
:103880000C94DE3008F070C08C3625E1920711F4FC
:103890000C94D8308E30974111F00C94650D20E0D7
:1038A00046E260E180E00E943F0A22E049E060E1F8
:1038B00080E00E943F0A22E049E066E180E00E9449
:1038C0003F0A23E044E060E180E00E943F0A20E0FC
:1038D0004BE060E180E00E943F0A1092DB02C0935F
:1038E000DD021092DF0285E08093E3028AE280939A
:1038F000E40264ED72E082E190E00E94CB0860E0B7
:1039000080E10E944B0941E06FE78EE00E9445098B
:1039100061E08AE00E94E70961E087E00E94E70930
:1039200060E088E00E94E70963E081E00E94E70927
:1039300065E683E00E94E7091092DB0284E0809351
:10394000DD028093DF0281E08093E3028093E40252
:1039500064ED72E082E190E00E94CB0860E085E0D7
:103960000E94E7090C94650D8136F9E19F0711F477
:103970000C9472308236994111F00C94650D60E020
:103980008AE00E944B090C94650D8836E9E19E0798
:1039900011F40C94AE30D0F4853629E1920711F47D
:1039A0000C94963010F40C948A308636F9E19F0717
:1039B00011F40C949C308736994111F00C94650DEC
:1039C00060E08FE00E944B090C94650D8B36E9E1B5
:1039D0009E0711F40C94C63088F4893629E19207C9
:1039E00011F40C94BA308A36994111F00C94650D9B
:1039F00060E082E10E944B090C94650D8C36F9E180
:103A00009F0711F40C94D2308033904211F00C9443
:103A1000650D6BE780E00E942D0A0C94650D8C33D8
:103A2000E0E29E0711F40C942F2708F04AC0863379
:103A300020E2920711F40C941D27D0F48333F0E2B6
:103A40009F0711F40C94112710F40C940B27843366
:103A5000E0E29E0711F40C9417278533904211F091
:103A60000C94650D64E080E00E942D0A0C94650DB5
:103A7000893320E2920711F40C94292788F48733C4
:103A8000F0E29F0711F40C9423278833904211F041
:103A90000C94650D6EE180E00E942D0A0C94650D7A
:103AA0008A33E0E29E0711F40C949B278B339042FB
:103AB00011F00C94650D6FE581E00E942D0A0C94C5
:103AC000650D833420E2920711F40C94AD27D0F4F5
:103AD0008E33F0E29F0711F40C94C52710F40C9478
:103AE000BF278134E0E29E0711F40C9465278234ED
:103AF000904211F00C94650D61E481E00E942D0A62
:103B00000C94650D863420E2920711F40C9477270B
:103B100088F48434F0E29F0711F40C947127853403
:103B2000904211F00C94650D6AE183E00E942D0A29
:103B30000C94650D8734E0E29E0711F40C947D2708
:103B40008834904211F00C94650D63E188E00E9486
:103B50002D0A0C94650D873220E3920711F40C9422
:103B6000852D08F069C18E35F0E29F0711F40C94A1
:103B70005F2708F08AC08335E0E29E0711F40C94B9
:103B80006B27C8F58E3420E2920711F40C94B92704
:103B9000D0F48B34F0E29F0711F40C94892710F4D1
:103BA0000C9483278C34E0E29E0711F40C948F2749
:103BB0008D34904211F00C94650D6EE481E00E940A
:103BC0002D0A0C94650D803520E2920771F010F4F7
:103BD0000C9459278135F0E29F0711F40C943B2790
:103BE0008235904211F00C94650D6DE683E00E94E1
:103BF0002D0A0C94650D8835E0E29E0711F40C94B3
:103C0000A727D0F4853520E2920711F40C944D27B4
:103C100010F40C9441278635F0E29F0711F40C94C0
:103C2000B3278735904211F00C94650D61E183E074
:103C30000E942D0A0C94650D8B35E0E29E0711F46D
:103C40000C94952788F4893520E2920711F40C949E
:103C500047278A35904211F00C94650D6FE780E09C
:103C60000E942D0A0C94650D8C35F0E29F0711F42B
:103C70000C9435278D35904211F00C94650D6EE64D
:103C800083E00E942D0A0C94650D8A31E1E29E07C3
:103C900011F40C94612608F07DC0823121E2920774
:103CA00011F40C94E72628F58B38F0E29F0711F405
:103CB0000C94A12758F48F35904211F00C94650DA7
:103CC0006FE682E00E942D0A0C94650D8E30F1E2C1
:103CD0009F0711F40C94EF268131914211F00C945E
:103CE000650D2FE341E063E082E00E943F0A0C94FF
:103CF000650D8531E1E29E0709F4C1C7D0F5833136
:103D000021E2920711F40C94A8138431914211F02E
:103D10000C94650D4AE06FE78DE50E94450940E18E
:103D20006FE78DE50E94450941E060E08DE50E9466
:103D3000450921E044E069E082E00E943F0A21E079
:103D400044E068E082E00E943F0A28E340E060E14E
:103D500082E00E943F0A21E042E060E182E00E94AE
:103D60003F0A2FE744E060E182E00E943F0A0C94A2
:103D7000650D8631F1E29F0709F46AC789319142E6
:103D800011F00C94650D41E06FE781E40E94450954
:103D90000C94650D8132E0E39E0711F40C94A32D81
:103DA00010F58C3023E2920709F483C258F48C3169
:103DB000914211F00C94650D67E782E00E942D0A94
:103DC0000C94650D8A3029E2920711F40C94F726C1
:103DD0008032904311F00C94650D61E087E00E9401
:103DE000E7090C94650D8432F0E39F0711F40C94FD
:103DF000972D88F48232E0E39E0711F40C94A92DEC
:103E00008332904311F00C94650D60E08AE00E94CB
:103E1000E7090C94650D853220E3920711F40C94A8
:103E20009D2D8632904311F00C94650D67E081E082
:103E30000E94E7090C94650D8D33F0E39F0711F4A0
:103E40000C94362D08F09BC08233E0E39E0711F4FA
:103E50000C94702C08F049C08C3220E3920711F4C6
:103E60000C94C12DD0F48932F0E39F0711F40C9427
:103E7000BB2D10F40C948B2D8A32E0E39E0711F4D5
:103E80000C94912D8B32904311F00C94650D61E0F0
:103E90008AE00E94E7090C94650D8F3220E39207B7
:103EA00011F40C94AF2D88F48D32F0E39F0711F4D8
:103EB0000C94B52D8E32904311F00C94650D61E099
:103EC00082E00E94E7090C94650D8033980711F495
:103ED0000C94942C8133904311F00C94650D60E0A8
:103EE00080E00E94020A0C94650D873320E392075C
:103EF00011F40C94882CD0F48433F0E39F0711F470
:103F00000C947C2C10F40C94762C8533E0E39E0703
:103F100011F40C94822C8633904311F00C94650DAF
:103F200067E080E00E94020A0C94650D8A3320E36A
:103F3000920711F40C940C2D88F48833F0E39F075A
:103F400011F40C948E2C8933904311F00C94650D70
:103F50006AE080E00E94020A0C94650D8B33E0E376
:103F60009E0711F40C94302D8C33904311F00C9477
:103F7000650D6EE080E00E94020A0C94650D8A34A3
:103F800020E3920711F40C94F42C08F053C084340D
:103F9000F0E39F0711F40C94E22C18F58134E0E370
:103FA0009E0711F40C94D62C58F48E33904311F0E4
:103FB0000C94650D6CE480E00E94F0090C94650D92
:103FC0008234E0E39E0711F40C94242D8334904353
:103FD00011F00C94650D63E180E00E94F0090C94EF
:103FE000650D873420E3920711F40C94E82C88F4D3
:103FF0008534F0E39F0711F40C94B22C863490437F
:1040000011F00C94650D63E080E00E94F0090C94BF
:10401000650D8834E0E39E0711F40C94EE2C89348E
:10402000904311F00C94650D6CE480E00E94020A4C
:104030000C94650D8F3420E3920711F40C94C42C7A
:10404000D0F48C34F0E39F0711F40C94002D10F49D
:104050000C94FA2C8D34E0E39E0711F40C942A2D75
:104060008E34904311F00C94650D61E280E00E9463
:10407000F0090C94650D823520E3920711F40C943D
:10408000B82C88F48035F0E39F0711F40C94CA2C07
:104090008135904311F00C94650D63E180E00E943E
:1040A000020A0C94650D8335E0E39E0711F40C942D
:1040B000DC2C8435904311F00C94650D62E580E0B2
:1040C0000E94020A0C94650D8C3621E4920711F4CB
:1040D0000C94382B08F085C28733F0E49F0711F465
:1040E0000C94982A08F04BC18636E1E39E0711F440
:1040F0000C942A3008F0A4C08F3520E3920711F405
:104100000C949A2CD8F58A35F0E39F0711F40C949F
:10411000122DD0F48735E0E39E0711F40C94AC2CFB
:1041200010F40C941E2D883520E3920711F40C94A2
:10413000182D8935904311F00C94650D68E280E0EC
:104140000E94020A0C94650D8C35F0E39F0711F470
:104150000C94A02C10F40C94062D8D35E0E39E07F2
:1041600011F40C94D02C8E35904311F00C94650D05
:104170006DE180E00E94020A0C94650D8C3121E310
:10418000920711F40C94A62CA0F58E30F1E39F0752
:1041900011F40C94CE2B58F48B38904311F00C94FE
:1041A000650D6FE080E00E94F0090C94650D85318B
:1041B000F1E39F0711F40C94992B8631914311F090
:1041C0000C94650D41E060E080E00E94450960913B
:1041D0008B03663010F00C94650D6F5F60938B035A
:1041E00041E080E20E94450980E00E943F090C9472
:1041F000650D8336E1E39E0711F40C94203080F4C2
:10420000813621E3920711F40C941B3082369143DE
:1042100011F00C94650D85E70E9454090C94650D0E
:104220008436F1E39F0711F40C94253085369143D1
:1042300011F00C94650D88E70E9454090C94650DEB
:104240008B36E9E39E0711F40C94C12E08F048C0A8
:104250008B3621E3920711F40C943E30C8F4883673
:10426000F1E39F0711F40C94343010F40C942F30C8
:104270008936E1E39E0711F40C9439308A36914374
:1042800011F00C94650D8DE70E9454090C94650D96
:104290008A3029E3920709F4AAC590F48C36F1E339
:1042A0009F0711F40C9443308C30934311F00C941D
:1042B000650D41E06AE08AE40E9445090C94650DB1
:1042C0008936E9E39E0711F40C94BC2E8A36994393
:1042D00011F00C94650D81E00E94C6090C94650DE7
:1042E000813320E4920711F40C94842A08F58C3869
:1042F000F9E39F0711F40C94CB2E50F48C369943BC
:1043000011F00C94650D83E00E94C6090C94650DB4
:104310008039F9E39F0711F40C94C62E8033904442
:1043200011F00C94650D8DE30E94F6080C94650D58
:104330008433E0E49E0711F40C948E2A80F48233D7
:1043400020E4920711F40C94892A8333904411F0ED
:104350000C94650D81E40E94F6080C94650D85337C
:10436000F0E49F0711F40C94932A8633904411F0E3
:104370000C94650D86E30E94F6080C94650D8F344D
:10438000E0E49E0711F40C94D92A08F096C0843416
:1043900020E4920711F40C940B2B08F047C08C33E7
:1043A000F0E49F0711F40C94A72AC8F48933E0E4E1
:1043B0009E0711F40C94A22A10F40C949D2A8A33BF
:1043C00020E4920711F40C94292B8B33904411F0C4
:1043D0000C94650D87E20E948C090C94650D813464
:1043E000F0E49F0711F40C94062B80F48D33E0E485
:1043F0009E0711F40C94012B8E33904411F00C9411
:10440000650D8FE20E948C090C94650D823420E4C6
:10441000920711F40C94F72A8334904411F00C9411
:10442000650D8BE10E948C090C94650D8934F0E4D4
:104430009F0711F40C94D42AC8F48634E0E49E0754
:1044400011F40C94102B10F40C94C02A873420E43F
:10445000920711F40C94152B8834904411F00C94AD
:10446000650D8AE20E9484090C94650D8C34F0E499
:104470009F0711F40C941F2B80F48A34E0E49E070C
:1044800011F40C941A2B8B34904411F00C94650D9C
:104490008CE20E9484090C94650D8D3420E492070F
:1044A00011F40C94FC2A8E34904411F00C94650D98
:1044B00085E20E948C090C94650D8A35F0E49F0713
:1044C00011F40C94ED2A08F047C08435E0E49E070F
:1044D00011F40C94CA2AC8F4813520E4920711F42F
:1044E0000C94B62A10F40C94DE2A8235F0E49F076F
:1044F00011F40C94C52A8335904411F00C94650D89
:104500008EE10E9484090C94650D8735E0E49E07D6
:1045100011F40C94BB2A80F4853520E4920711F441
:104520000C94CF2A8635904411F00C94650D8CE1E3
:104530000E948C090C94650D8835F0E49F0711F4F6
:104540000C94F22A8935904411F00C94650D88E2A0
:104550000E94F6080C94650D8F35E0E49E0709F47F
:10456000FBC7C0F48C3520E4920709F4FAC710F4B5
:104570000C94242B8D35F0E49F0711F40C94E32A5E
:104580008E35904411F00C94650D82E30E94F6087C
:104590000C94650D8936E1E49E0711F40C942E2BE2
:1045A00080F48B3820E4920711F40C94E82A8C31C3
:1045B000914411F00C94650D8AE30E94F6080C9466
:1045C000650D8A36F1E49F0711F40C94332B8B367A
:1045D000914411F00C94650D82E00E94140A0C9431
:1045E000650D8935E0E59E0711F40C94A32E08F0C3
:1045F0002EC1833420E5920711F40C94DA2F08F0D1
:1046000090C08633F0E59F0711F40C946C2E08F0EF
:1046100041C08133E0E59E0711F40C94582E08F553
:104620008D3821E4920711F40C94422B50F48C380D
:10463000914411F00C94650D86E00E94140A0C94CC
:10464000650D803921E4920711F40C943D2B8033E1
:10465000904511F00C94650D8DE30E94E2080C94D6
:10466000650D8333F0E59F0711F40C94622E10F46E
:104670000C945D2E8433E0E59E0711F40C94672EB4
:104680008533904511F00C94650D8EE20E94E2088E
:104690000C94650D8B3320E5920711F40C94E92FEF
:1046A000C8F48833F0E59F0711F40C94762E10F4CB
:1046B0000C94712E8933E0E59E0711F40C947B2E47
:1046C0008A33904511F00C94650D81E30E947409C2
:1046D0000C94650D8E3320E5920711F40C94EE2FA7
:1046E00080F48C33F0E59F0711F40C94802E8D3309
:1046F000904511F00C94650D88E20E947C090C94A1
:10470000650D8134E0E59E0711F40C94F32F82349B
:10471000904511F00C94650D84E20E947C090C9484
:10472000650D8E3420E5920711F40C94E42F08F007
:1047300047C08834F0E59F0711F40C940730C8F4A3
:104740008534E0E59E0711F40C94992E10F40C9436
:10475000FD2F863420E5920711F40C940230873443
:10476000904511F00C94650D89E20E9474090C9437
:10477000650D8B34F0E59F0711F40C940C3080F438
:104780008934E0E59E0711F40C94A82E8A349045F4
:1047900011F00C94650D8BE20E9474090C94650D68
:1047A0008C3420E5920711F40C9411308D3490452F
:1047B00011F00C94650D86E20E947C090C94650D45
:1047C0008335F0E59F0711F40C94F82FC8F4803579
:1047D000E0E59E0711F40C94B22E10F40C94AD2E6B
:1047E000813520E5920711F40C948F2E8235904587
:1047F00011F00C94650D86E20E94E2080C94650DA0
:104800008635F0E59F0711F40C94DF2F80F4843592
:10481000E0E59E0711F40C949E2E8535904511F02D
:104820000C94650D89E20E94E2080C94650D8735B1
:1048300020E5920711F40C94942E8835904511F0E0
:104840000C94650D8AE10E947C090C94650D8C36F0
:10485000F1E59F0711F40C94EE2E08F04BC1813660
:10486000E1E59E0711F40C94753708F046C08E35CB
:1048700020E5920711F40C94B72EC8F48B35F0E5BF
:104880009F0711F40C94163010F40C94D52F8C352E
:10489000E0E59E0711F40C948A2E8D35904511F0B9
:1048A0000C94650D83E30E94E2080C94650D8E3034
:1048B00021E5920709F47AC780F48F35F0E59F0768
:1048C00011F40C94852E8B38904511F00C94650DE5
:1048D00088E10E947C090C94650D8B31E1E59E070F
:1048E00011F40C94C4398C31914511F00C94650D80
:1048F0008AE30E94E2080C94650D863621E5920752
:1049000011F40C94063908F073C08336F1E59F0763
:1049100011F40C94483810F40C94DF378436E1E538
:104920009E0711F40C94A7388536914511F00C942C
:10493000650D61E18EE195E00E94C10715E01093DD
:10494000420587E080934305C093440562E18BEE06
:1049500094E00E94C10710930F058AE08093100530
:10496000C093110563E188EB94E00E94C1071093A6
:10497000DC04D093DD04C093DE0464E185E894E0B8
:104980000E94C1071093A9048BE48093AA04C093EA
:10499000AB0465E182E594E00E94C10710937604C0
:1049A0008AE480937704C093780466E18FE194E011
:1049B0000E94C10710934304D0924404C09345045D
:1049C00067E18CEE93E00E94C10710931004F0920F
:1049D0001104C093120468E189EB93E00E94C107BF
:1049E0001093DD03F092DE03C093DF030C94650D9A
:1049F000893621E5920711F40C94E42E08F06AC080
:104A00008736F1E59F0711F40C9465398836914596
:104A100011F00C94650D69E38EE195E00E94C107E9
:104A200015E01093420587E080934305C093440549
:104A30006AE38BEE94E00E94C10710930F058AE0B1
:104A400080931005C09311056BE388EB94E00E94FE
:104A5000C1071093DC04D093DD04C093DE046CE343
:104A600085E894E00E94C1071093A9048BE4809329
:104A7000AA04C093AB046DE382E594E00E94C107F1
:104A8000109376048AE480937704C09378046EE3ED
:104A90008FE194E00E94C10710934304D092440434
:104AA000C09345046FE38CEE93E00E94C10710931E
:104AB0001004F0921104C093120460E489EB93E0B7
:104AC0000E94C1071093DD03F092DE03C093DF0361
:104AD0000C94650D8A36E1E59E0711F40C94E92EDD
:104AE0008B36914511F00C94650D82E00E94A4096B
:104AF0000C94650D883621E6920709F4DCC508F0B0
:104B00004BC08236F1E69F0709F4C1C508F58D3820
:104B1000E1E59E0711F40C94F82E50F48C38914581
:104B200011F00C94650D86E00E94A4090C94650DAB
:104B30008039E1E59E0711F40C94F32E81369146FD
:104B400011F00C94650D84E70E9464090C94650DC6
:104B5000853621E6920709F4A4C578F48336F1E698
:104B60009F0709F499C58436914611F00C94650DA0
:104B700087E70E9464090C94650D8636E1E69E077E
:104B800009F494C58736914611F00C94650D8AE7B7
:104B90000E9464090C94650D823021E8920709F4A3
:104BA0002DC1B0F48A36F1E69F0709F48EC508F4EA
:104BB00087C58B36E1E69E0709F48CC58C36914695
:104BC00011F00C94650D8FE70E9464090C94650D3B
:104BD0008C3021EA9207D9F088F48230F1E99F07FE
:104BE00009F44AC78A30914A11F00C94650D41E0EE
:104BF0006FE38AE40E9445090C94650D8A30E1EB6D
:104C00009E07A9F38C30914B11F00C94650D41E097
:104C100060E48AE40E9445090C94650D80918C0340
:104C2000882311F40C94650D815080938C030E94AD
:104C30003F090C94650D80918C038B3010F40C941B
:104C4000650D8A5080938C030E943F090C94650D7A
:104C500041E060E080E00E94450960918B0369308B
:104C600010F00C94650D6F5F60938B0341E080E260
:104C70000E94450980E00E943F090C94650D41E0C7
:104C800060E080E00E94450960918B03662311F487
:104C90000C94650D615060938B0341E080E20E94AB
:104CA000450980E00E943F090C94650D81E08093E6
:104CB000E90220E04AE062E082E00E943F0A0C94B0
:104CC000650D41E061E081E40E9445090C94650DA9
:104CD0008091E8028823A9F01092E80221E048E0E0
:104CE00061E082E00E943F0A21E048E061E080E06C
:104CF0000E943F0A41E06FE780E50E9445090C945D
:104D0000650D81E08093E80220E048E061E082E008
:104D10000E943F0A20E048E061E080E00E943F0AF4
:104D200041E061E080E50E9445090C94650D8091A9
:104D3000E7028823A9F01092E70221E049E061E050
:104D400082E00E943F0A21E049E061E080E00E94A9
:104D50003F0A41E06FE781E50E9445090C94650D2B
:104D600081E08093E70220E049E061E082E00E9478
:104D70003F0A20E049E061E080E00E943F0A41E014
:104D800061E081E50E9445090C94650D83E00E9475
:104D9000EC080C94650D6BE38BE00E94240A0C94E4
:104DA000650D6FE28BE00E94240A0C94650D20E0F3
:104DB00042E060E083E00E943F0A0C94650D21E030
:104DC00042E060E083E00E943F0A0C94650D29E612
:104DD00041E060E182E00E943F0A0C94650D25E00D
:104DE00044E161E082E00E943F0A0C94650D41E0DD
:104DF0006FE78AE40E9445090C94650D41E060E08C
:104E000082E40E9445090C94650D60E080E00E94F8
:104E10002D0A0C94650D61E080E00E942D0A0C942F
:104E2000650D62E080E00E942D0A0C94650D63E040
:104E300080E00E942D0A0C94650D6FE080E00E94D6
:104E40002D0A0C94650D6FE180E00E942D0A0C94F0
:104E5000650D64E680E00E942D0A0C94650D60E10A
:104E600081E00E942D0A0C94650D63E682E00E94A9
:104E70002D0A0C94650D6BE083E00E942D0A0C94C2
:104E8000650D6EE583E00E942D0A0C94650D6FE6BA
:104E900083E00E942D0A0C94650D63E683E00E9476
:104EA0002D0A0C94650D67E683E00E942D0A0C9490
:104EB000650D6CE683E00E942D0A0C94650D66E793
:104EC00083E00E942D0A0C94650D67E783E00E9441
:104ED0002D0A0C94650D6AE084E00E942D0A0C9462
:104EE000650D6AE587E00E942D0A0C94650D6EE55C
:104EF00087E00E942D0A0C94650D64E687E00E940D
:104F00002D0A0C94650D61E388E00E942D0A0C9433
:104F1000650D6DE388E00E942D0A0C94650D63E138
:104F200080E00E942D0A0C94650D6CE180E00E94E7
:104F30002D0A0C94650D62E580E00E942D0A0C9408
:104F4000650D68E180E00E942D0A0C94650D61E713
:104F500080E00E942D0A0C94650D6EE080E00E94B6
:104F60002D0A0C94650D6FE481E00E942D0A0C94CB
:104F7000650D64E481E00E942D0A0C94650D60E5E6
:104F800081E00E942D0A0C94650D63E581E00E948A
:104F90002D0A0C94650D61E087E00E94240A0C94B0
:104FA000650D60E087E00E94240A0C94650D61E0C5
:104FB00086E00E94240A0C94650D60E086E00E9461
:104FC000240A0C94650D60E088E00E94240A0C9489
:104FD000650D61E089E00E94240A0C94650D41E0B2
:104FE0006FE78EE00E9445090C94650D41E060E09A
:104FF0008EE00E9445090C94650D61E082E00E94FC
:10500000240A0C94650D62E082E00E94240A0C944C
:10501000650D63E081E00E94240A0C94650D67E051
:1050200081E00E94240A0C94650D80E00E941C0A15
:105030000C94650D82E00E941C0A0C94650D83E0BF
:105040000E941C0A0C94650D85E00E941C0A0C94B9
:10505000650D20E042E062E082E00E943F0A21E02C
:1050600044E062E082E00E943F0A0C94650D6AE130
:1050700086E00E94360A0C94650D6EE585E00E947C
:10508000360A0C94650D6AE585E00E94360A0C9498
:10509000650D6EE782E00E94360A0C94650D6FE79D
:1050A00082E00E94360A0C94650D69E083E00E945C
:1050B000360A0C94650D6AE083E00E94360A0C946F
:1050C000650D6CE083E00E94360A0C94650D60E18A
:1050D00083E00E94360A0C94650D64E183E00E942F
:1050E000360A0C94650D65E183E00E94360A0C9443
:1050F000650D6AE784E00E94360A0C94650D60E055
:1051000085E00E94360A0C94650D62E085E00E94FD
:10511000360A0C94650D63E085E00E94360A0C9413
:10512000650D63E285E00E94360A0C94650D66E227
:1051300083E00E94360A0C94650D67E283E00E94CA
:10514000360A0C94650D63E483E00E94360A0C94E1
:10515000650D65E683E00E94360A0C94650D69E6EC
:1051600083E00E94360A0C94650D68E783E00E9494
:10517000360A0C94650D6EE284E00E94360A0C94A7
:10518000650D69E384E00E94360A0C94650D6CE3BA
:1051900084E00E94360A0C94650D6CE785E00E945D
:1051A000360A0C94650D61E080E00E94360A0C948A
:1051B000650D63E080E00E94360A0C94650D64E0A2
:1051C00080E00E94360A0C94650D65E080E00E9444
:1051D000360A0C94650D66E080E00E94360A0C9455
:1051E000650D67E080E00E94360A0C94650D68E06A
:1051F00080E00E94360A0C94650D6EE086E00E9405
:10520000360A0C94650D60E186E00E94360A0C9423
:10521000650D60E385E00E940B0A0C94650D61E367
:1052200085E00E940B0A0C94650D62E485E00E9403
:105230000B0A0C94650D6EE285E00E940B0A0C943B
:10524000650D68E385E00E940B0A0C94650D6BE325
:1052500085E00E940B0A0C94650D6EE385E00E94C8
:105260000B0A0C94650D6FE385E00E940B0A0C9409
:10527000650D6AE385E00E940B0A0C94650D6FE2F0
:1052800085E00E940B0A0C94650D67E385E00E949F
:105290000B0A0C94650D60E485E00E940B0A0C94E7
:1052A000650D63E485E00E940B0A0C94650D68E1CE
:1052B00084E10E940B0A0C94650D6BE786E00E9466
:1052C0000B0A0C94650D6CE786E00E940B0A0C94A7
:1052D000650D6BE687E00E940B0A0C94650D69E68C
:1052E00087E00E940B0A0C94650D6AE687E00E9435
:1052F0000B0A0C94650D61E285E00E940B0A0C9488
:10530000650D63E285E00E940B0A0C94650D64E272
:1053100085E00E940B0A0C94650D67E285E00E940F
:105320000B0A0C94650D68E285E00E940B0A0C9450
:10533000650D69E285E00E940B0A0C94650D6BE235
:1053400085E00E940B0A0C94650D6CE285E00E94DA
:105350000B0A0C94650D63E385E00E940B0A0C9424
:10536000650D65E485E00E940B0A0C94650D66E40A
:1053700085E00E940B0A0C94650D68E084E10E94B0
:105380000B0A0C94650D60E284E10E940B0A0C94F8
:10539000650D68E284E10E940B0A0C94650D60E5DE
:1053A00085E00E940B0A0C94650D88E60E949C091A
:1053B0000C94650D8AE60E949C090C94650D8BE6A1
:1053C0000E949C090C94650D8CE60E949C090C942B
:1053D000650D8DE60E949C090C94650D8FE60E9478
:1053E0009C090C94650D80E70E949C090C94650D46
:1053F00081E70E949C090C94650D82E70E949C093C
:105400000C94650D87E70E949C090C94650D88E754
:105410000E949C090C94650D89E70E949C090C94DC
:10542000650D8CE70E949C090C94650D8EE70E9427
:105430009C090C94650D8FE70E949C090C94650DE6
:1054400080E00E9494090C94650D81E00E9494090B
:105450000C94650D82E00E9494090C94650D83E024
:105460000E9494090C94650D84E00E9494090C94A8
:10547000650D85E00E9494090C94650D87E00E94FB
:1054800094090C94650D88E00E9494090C94650DB4
:1054900089E00E9494090C94650D8AE00E949409A9
:1054A0000C94650D8BE00E9494090C94650D8CE0C2
:1054B0000E9494090C94650D8EE00E9494090C944E
:1054C000650D8FE00E9494090C94650D80E10E94A7
:1054D00094090C94650D82E10E9494090C94650D69
:1054E00083E10E9494090C94650D85E10E94940962
:1054F0000C94650D86E10E9494090C94650D88E179
:105500000E9494090C94650D80E30E94F6080C94A7
:10551000650D81E30E94F6080C94650D82E40E94FB
:10552000F6080C94650D8EE20E94F6080C94650D49
:1055300088E30E94F6080C94650D8BE30E94F60840
:105540000C94650D8CE30E94F6080C94650D8EE3B7
:105550000E94F6080C94650D8FE30E94F6080C94E7
:10556000650D89E30E94F6080C94650D81E20E94A6
:10557000F6080C94650D83E20E94F6080C94650D04
:1055800084E20E94F6080C94650D86E20E94F608FB
:105590000C94650D87E20E94F6080C94650D89E273
:1055A0000E94F6080C94650D8AE20E94F6080C949D
:1055B000650D8BE20E94F6080C94650D8CE20E944A
:1055C000F6080C94650D83E30E94F6080C94650DB3
:1055D00088E10E948C090C94650D89E10E948C0978
:1055E0000C94650D8AE10E948C090C94650D84E28F
:1055F0000E948C090C94650D86E20E948C090C9423
:10560000650D88E20E948C090C94650D8DE10E9465
:1056100084090C94650D8FE10E9484090C94650D3A
:1056200083E20E9484090C94650D89E20E9484093A
:105630000C94650D8BE20E9484090C94650D8DE23B
:105640000E9484090C94650D8EE20E9484090C94DA
:10565000650D81E30E9484090C94650D80E00E9431
:10566000140A0C94650D81E00E94140A0C94650DD7
:1056700083E00E94140A0C94650D84E00E94140AD1
:105680000C94650D85E00E94140A0C94650D85E765
:105690000E9464090C94650D86E70E9464090C94CD
:1056A000650D88E70E9464090C94650D89E70E94E6
:1056B00064090C94650D8BE70E9464090C94650DD8
:1056C0008CE70E9464090C94650D8DE70E946409C3
:1056D0000C94650D8EE70E9464090C94650D60E6DC
:1056E0008DE50E9400090C94650D60E48EE30E9434
:1056F00000090C94650D60E18EE40E9400090C9491
:10570000650D68E785E50E9400090C94650D60E071
:1057100084E60E9400090C94650D6CE389E60E9402
:1057200000090C94650D64E281E70E9400090C9465
:10573000650D41E060E080E00E94450960918B03C7
:10574000662311F40C94650D615060938B0341E066
:1057500080E20E94450980E00E943F090C94650D9B
:1057600081E00E94EC080C94650D8091E902882389
:1057700051F01092E90221E04AE065E080E00E94E9
:105780003F0A0C94650D81E08093E90220E04AE035
:1057900065E080E00E943F0A0C94650D25E040E141
:1057A00061E080E00E943F0A0C94650D2FE341E028
:1057B00066E080E00E943F0A0C94650D21E042E023
:1057C00065E080E00E943F0A0C94650D20E042E015
:1057D00065E080E00E943F0A21E044E065E080E06F
:1057E0000E943F0A0C94650D6BE084E00E94B509AD
:1057F00060E081E20E94B5096AE285E00E94AC099E
:1058000061E08BE20E94B5096FE782E00E94B50972
:105810000C94650D6BE084E00E94B50960E081E2C4
:105820000E94B50961E285E00E94AC0961E08BE26B
:105830000E94B5096FE782E00E94B5090C94650DDE
:105840002CE048E765E380E90E94140964E670E013
:1058500080E090E00E9483022CE040E065E380E875
:105860000E9414090C94650D2CE048E765E480E97A
:105870000E94140964E670E080E090E00E948302D8
:105880002CE040E065E480E80E9414090C94650D6A
:105890002CE048E76DE380E90E94140964E670E0BB
:1058A00080E090E00E9483022CE040E06DE380E81D
:1058B0000E9414090C94650D2CE04FE763E380E926
:1058C0000E94140964E670E080E090E00E94830288
:1058D0002CE040E063E380E80E9414090C94650D1D
:1058E00061E080E00E94020A0C94650D62E080E0B5
:1058F0000E94020A0C94650D63E080E00E94020A97
:105900000C94650D64E080E00E94020A0C94650D21
:1059100068E080E00E94020A0C94650D69E080E076
:105920000E94020A0C94650D6BE080E00E94020A5E
:105930000C94650D6FE080E00E94020A0C94650DE6
:1059400061E180E00E94020A0C94650D62E180E052
:105950000E94020A0C94650D64E180E00E94020A34
:105960000C94650D6CE180E00E94020A0C94650DB8
:1059700061E280E00E94020A0C94650D6AE280E018
:105980000E94020A0C94650D6DE480E00E94020AF8
:105990000C94650D65E280E00E94020A0C94650D8E
:1059A00067E180E00E94020A0C94650D60E080E0EF
:1059B0000E94F0090C94650D61E080E00E94F009FE
:1059C0000C94650D62E080E00E94F0090C94650D76
:1059D00064E080E00E94F0090C94650D67E080E0CF
:1059E0000E94F0090C94650D68E080E00E94F009C7
:1059F0000C94650D69E080E00E94F0090C94650D3F
:105A00006AE080E00E94F0090C94650D6BE080E094
:105A10000E94F0090C94650D6EE080E00E94F00990
:105A20000C94650D61E180E00E94F0090C94650D15
:105A300062E180E00E94F0090C94650D64E180E071
:105A40000E94F0090C94650D6CE180E00E94F00961
:105A50000C94650D62E580E00E94F0090C94650DE0
:105A600068E280E00E94F0090C94650D6AE280E033
:105A70000E94F0090C94650D41E061E08EE00E9407
:105A800045090C94650D61E086E00E94F9090C94CB
:105A9000650D60E087E00E94F9090C94650D61E0F6
:105AA00088E00E94F9090C94650D60E088E00E948E
:105AB000F9090C94650D61E089E00E94F9090C94E4
:105AC000650D60E089E00E94F9090C94650D60E0C5
:105AD00082E00E94F9090C94650D62E082E00E9468
