:100000000C9404010C94DE0A0C94B70A0C942C0195
:100010000C942C010C942C010C942C010C942C01AC
:100020000C942C010C942C010C942C010C942C019C
:100030000C942C010C942C010C942C010C942C018C
:100040000C946D0A0C942C010C942B0B0C94050B46
:100050000C942C010C942C010C942C010C942C016C
:100060000C942C010C942C010000000023002600AD
:10007000290000000000240027002A0000000000E2
:10008000250028002B0004040404040404040202D4
:100090000202020203030303030301020408102007
:1000A0004080010204081020010204081020000012
:1000B0000008000201000003040700000000000027
:1000C00000001912181415BB161117131A404020FE
:1000D000200804020277017E025803120659071411
:1000E00008110A8410761B661C0D1D5A1E291F70EC
:1000F00020692172227A236B24732574266C27755C
:10010000287D29712A792C7B2D7C2E0F3F453016B6
:10011000311E32263325342E3536363D373E3846AD
:1001200039523A413B4E3C493D4A3E0E401C413219
:10013000422143234424452B463447334843493B1B
:100140004A424B4B4C3A4D314E444F4D5015512D78
:10015000521B532C543C552A561D57225835591AB8
:100160005A4C5B5D5C545D5B5E555F618B0561065F
:100170006204630C6403650B6683670A680169099E
:100180006A786B076C086D106E186F2070287130DC
:1001900072387340744875507657775F786D605148
:1001A0009113926A9364946795F296F197639862BB
:1001B000995FA012BB7C041409110B1F0C270D2F93
:1001C0000E7E0F6C1169127D137A146B15741675FF
:1001D0001772187019711A5A2B4A2F4D79157A3BDC
:1001E0007B347C237D327E217F508048812B82406E
:1001F0008310843A853886308728882089188A3782
:100200008C3F8D5E9000920B11241FBECFEFD8E083
:10021000DEBFCDBF14E0A0E0B1E0E6E0F4E702C04D
:1002200005900D92A631B107D9F727E0A6E1B4E019
:1002300001C01D92A23FB207E1F711E0C4E0D1E096
:1002400004C02197FE010E94FB39C330D107C9F7D2
:100250000E94630C0C94013A0C9400008230D8F494
:10026000E82FF0E0EE0FFF1FE352FC4F2AE236E0EA
:1002700031832083813041F0809169008C7F8260DE
:1002800080936900E89A089580916900837F88606F
:1002900080936900E99A0895833081F028F48130D1
:1002A00099F08230A9F008958730A9F08830C9F01C
:1002B0008430B1F4809180008F7D03C080918000F4
:1002C0008F7780938000089584B58F7784BD0895DB
:1002D00084B58F7DFBCF8091B0008F778093B00085
:1002E00008958091B0008F7DF9CF1F93CF93DF9356
:1002F000282F30E0F901E255FF4F8491F901E656CD
:10030000FF4FD491F901EA57FF4FC491CC23A9F0D4
:10031000162F81110E944C01EC2FF0E0EE0FFF1F11
:10032000E458FF4FA591B4918FB7F894EC91111157
:1003300008C0D095DE23DC938FBFDF91CF911F9152
:100340000895DE2BF8CFCF93DF9390E0FC01E656C3
:10035000FF4F24918A579F4FFC0184918823D1F04D
:1003600090E0880F991FFC01EE58FF4FA591B491C2
:10037000FC01E458FF4FC591D491623071F49FB7EE
:10038000F8943C91822F809583238C93E8812E2BC7
:1003900028839FBFDF91CF9108958FB7F894EC9198
:1003A0002E2B2C938FBFF6CF8E3008F08E50877097
:1003B000806480937C0080917A00806480937A00CE
:1003C00080917A0086FDFCCF809178009091790031
:1003D0000895CF92DF92EF92FF920F931F93CF93E6
:1003E000DF93EC016B018A0189AD0E94D4019EAFBD
:1003F0008DAFFE01FF9640815181481B590B5CAFC8
:100400004BAF495F5F4F4F30510508F457C09183A0
:1004100080830D2C000CEE08FF08012E000C220B2F
:10042000330BA90198012C193D094E095F09DC0124
:100430000E94BF3927EF33E040E050E00E94A0392E
:10044000BA01A9014C0D5D1D6E1D7F1DDB01CA01A6
:100450002CE1B695A795979587952A95D1F78E8F1C
:10046000DB01CA0135E1B595A795979587953A9532
:10047000D1F78F778F8FDB01CA01EEE0B595A79595
:1004800097958795EA95D1F78F7788A3DB01CA0105
:10049000F7E0B595A79597958795FA95D1F78F775A
:1004A00089A3242F2F772AA381E0DF91CF911F9179
:1004B0000F91FF90EF90DF90CF90089580E0F5CFFF
:1004C000CF92DF92EF92FF920F931F93CF93DF9320
:1004D000EC016B018A0189AD0E94D4019EAF8DAF02
:1004E000FE01FF9620813181295F3F4F281B390B88
:1004F0002F30310580F1918380830D2C000CEE08A4
:10050000FF08012E000C220B330BA90198012C19B6
:100510003D094E095F09DC010E94BF3927EF33E036
:1005200040E050E00E94A0392C0D3D1D4E1D5F1D86
:10053000C901880F892F881F990B83708BAB2F7788
:100540002CAB81E0DF91CF911F910F91FF90EF9045
:10055000DF90CF90089580E0F5CFCF92DF92EF92B9
:10056000FF920F931F93CF93DF93EC016B018A01EE
:1005700089AD0E94D4019EAF8DAFFE01FF96208110
:100580003181295F3F4F281B390B2F30310540F156
:10059000918380830D2C000CEE08FF08012E000CC7
:1005A000220B330BA90198012C193D094E095F0953
:1005B000DC010E94BF3927EF33E040E050E00E94A9
:1005C000A039C20ED31EE41EF51EC88A81E0DF9159
:1005D000CF911F910F91FF90EF90DF90CF900895F2
:1005E00080E0F5CF3FB7F8948091340490913504C2
:1005F000A0913604B091370426B5A89B05C02F3FC3
:1006000019F00196A11DB11D3FBFBA2FA92F982F38
:100610008827BC01CD01620F711D811D911D42E033
:10062000660F771F881F991F4A95D1F7089508957F
:10063000AF92BF92CF92DF92EF92FF920F931F93F0
:10064000CF93DF936C017B018B01040F151FEB012E
:100650005E01AE18BF08C017D10759F06991D601E5
:10066000ED91FC910190F081E02DC6010995892B57
:1006700079F7C501DF91CF911F910F91FF90EF9016
:10068000DF90CF90BF90AF900895FC01538D448DC3
:10069000252F30E0842F90E0821B930B541710F02D
:1006A000CF96089501970895FC01918D828D98173A
:1006B00061F0A28DAE0FBF2FB11D5D968C91928D12
:1006C0009F5F9F73928F90E008958FEF9FEF089543
:1006D000FC01918D828D981731F0828DE80FF11D0C
:1006E000858D90E008958FEF9FEF0895FC01918D27
:1006F000228D892F90E0805C9F4F821B91098F7320
:100700009927089583E597E00E94760321E0892BDD
:1007100009F420E0822F089580E090E0892B29F0F1
:100720000E94820381110C9400000895FC01A48DA5
:10073000A80FB92FB11DA35ABF4F2C91848D90E003
:1007400001968F739927848FA689B7892C93A089E6
:10075000B1898C91837080648C93938D848D981370
:1007600006C00288F389E02D80818F7D8083089503
:10077000EF92FF920F931F93CF93DF93EC0181E0F1
:10078000888F9B8D8C8D98131AC0E889F989808198
:1007900085FF15C09FB7F894EE89FF896083E889CB
:1007A000F98980818370806480839FBF81E090E0BD
:1007B000DF91CF911F910F91FF90EF900895F62E4A
:1007C0000B8D10E00F5F1F4F0F731127E02E8C8DE4
:1007D0008E110CC00FB607FCFACFE889F989808129
:1007E00085FFF5CFCE010E949603F1CFEB8DEC0F84
:1007F000FD2FF11DE35AFF4FF0829FB7F8940B8F46
:10080000EA89FB8980818062CFCFCF93DF93EC01AF
:10081000888D8823B9F0AA89BB89E889F9898C91E8
:1008200085FD03C0808186FD0DC00FB607FCF7CFA4
:100830008C9185FFF2CF808185FFEDCFCE010E94A4
:100840009603E9CFDF91CF91089510922A04109278
:100850002904109228041092270410925004109238
:100860004F041092260410923E0410923904109204
:100870002504089590912A049F5F963008F090E037
:1008800020912904291751F0E92FF0E0E15EFB4F98
:10089000808390932A0481E090E008958CEF9FEF8D
:1008A0000895CF93DF9380931E0480931D041092CC
:1008B000260410921C0480912504806C80932504EA
:1008C0008091280487FD0DC08091280480FF09C015
:1008D0008091270480931B0480912504806180937C
:1008E000250480912B04823009F441C0833061F4E7
:1008F000E99881E090E0880F991FFC01E352FC4FDA
:1009000087E193E091838083D0912C0461E08D2F67
:100910000E94750161E08D2F0E94A301C0912B04FC
:1009200061E08C2F0E94750161E08C2F0E94A30171
:1009300083E290E00197F1F760E08C2F0E9475014F
:100940008BEE90E00197F1F760E08D2F0E9475012A
:1009500062E08C2F0E94A30180E0C23021F08FEF73
:10096000C33009F481E0DF91CF910C942E01E89817
:1009700090E080E0C0CF9091290480912A048917EB
:1009800099F1809128048160809328048091280443
:1009900087FD2DC08091250487FD29C01092270472
:1009A0002FEF3FEF9F5F963008F090E0E92FF0E0E7
:1009B000E15EFB4F2F3F320771F4208130E09093CE
:1009C000290480912A048913EDCF822F0E945104BB
:1009D00081E090E0089580818B3BB9F780912704F6
:1009E0008F5F80932704EBCF8EEF9FEF08958AE708
:1009F0009FEF08958DEE0E943A048BEB0E943A041B
:100A0000809139040E943A048BEB0E943A04892BAE
:100A100011F00C94BB0408950F931F93CF93DF93B1
:100A200010915A0480915904181B17FD1C5F01E0B6
:100A3000133084F580915004A0914F048A1B87FDE8
:100A4000885F882319F180915004A817F9F0AF5FEF
:100A5000A83008F0A0E0A0934F04B0E0AA0FBB1F9D
:100A6000A15CBB4FCD91DC9111978D919C9192FD32
:100A7000D2C02C2FCA3A20F08C2F815F823010F424
:100A800094FF1CC0DD27209709F0C7C090E080E0EC
:100A9000112379F0E0915904EF5FE43008F0E0E0D1
:100AA000E0935904F0E0EE0FFF1FEF5AFB4F8081F7
:100AB0009181DF91CF911F910F91089580913E0414
:100AC00095FF18C0806880933E04D0E0C0E093FF9B
:100AD0001EC0FE01ED54FE4FE4912E130DC0CC5408
:100AE000DE4FFE01C491D0E02097D1F480913E0406
:100AF000D82BC9CF8F77E7CF2296C235D10549F7DA
:100B0000D0E0C0E0F3CF2296CE3DD105C9F3FE017F
:100B1000EB52FF4FE4912E13F6CFCA52DF4FE1CFD5
:100B200080913E04FE01C430D10508F049C0E65C66
:100B3000FB4F87FF04C01082CBEBD0E01BC090813D
:100B40009130D1F30083C230D105A1F1C330D1057A
:100B500041F182E090913904292F282369F12091F5
:100B60003E048095892380933904206820933E04B5
:100B70000E94FA0480913E0487FF04C090913804DB
:100B800093FD65C09E01205231092134310508F4DE
:100B900040C0CB38D10509F43CC0816080933E044D
:100BA000A5CF84FF05C08F7E80933E0484E0D2CF22
:100BB0008061FACF81E0CECF892B80933904D8CFE2
:100BC0003697E830F10598F4E353FF4FE49187FF3F
:100BD00005C0E095E823E0933E04CCCF9E2F9823F8
:100BE00021F09091380497FDA7CFE82BF4CFFE01B8
:100BF000B097EB30F10508F0BDCF9091390491FF2B
:100C000002C086FFB7CFEE53FF4FE491CE2FD0E066
:100C1000B1CF8E7FC3CFC6E0D0E0CE0199278B3B0A
:100C2000910509F405CF892B09F402CF80915A046C
:100C30008F5F84300CF080E0E82FEE0FFF0BEF5A4F
:100C4000FB4FD183C08380935A041F5FF1CECBEB5F
:100C5000D0E0E3CFCF92DF92EF92FF920F931F93FA
:100C6000CF93DF938091250486FF74C08091260482
:100C70008F5F80932604809126048A3048F4823066
:100C800098F560E0813009F448C010922604C4C091
:100C90008B3009F44EC0E8F18C30B9F780911D0417
:100CA0008E3E69F080911D048E3F49F080911D04B5
:100CB000809316048091250482608093250480919E
:100CC00025048F7B809325048091280487FF3EC0F4
:100CD000809128048F77809328048091250484FDD7
:100CE000D4CF0E94BB04D1CFC0911E04C1706C2F21
:100CF00080912C040E94750180911C04C80FC09340
:100D00001C0480911E0490E09595879580931E04A5
:100D100083C060911C046095617080912C04DF9108
:100D2000CF911F910F91FF90EF90DF90CF900C9497
:100D3000750162E080912C04DF91CF911F910F919A
:100D4000FF90EF90DF90CF900C94A3018091280446
:100D50008E7FC1CF20912C0430E0F901E255FF4F86
:100D60008491F901E656FF4FD491F901EA57FF4FFC
:100D7000C491CC2379F081110E944C01EC2FF0E05A
:100D8000EE0FFF1FE859FF4FA591B491EC91ED23B1
:100D900081E009F480E09FB7F894409130045091CD
:100DA000310460913204709133049FBF00911704A5
:100DB000109118042091190430911A046A017B01E2
:100DC000C01AD10AE20AF30A970186010B3F110506
:100DD0002105310520F01092260410921E04409344
:100DE0001704509318046093190470931A04909197
:100DF00026049F5F90932604909126049A30A8F4CD
:100E0000923028F5913009F040CF10921C04809167
:100E10002504806880932504DF91CF911F910F9165
:100E2000FF90EF90DF90CF9008959A3019F19B30AA
:100E300009F02BCF80911C048D3F48F18EEF0E946A
:100E40005104809128048068809328041ECF9091DB
:100E50001C04980F90931C0420911E0430E03595DB
:100E6000279520931E0490E0811190E880911E0444
:100E7000892B4CCF90911C04917090931C049091FD
:100E80001C048913C9CF8DEF80931C04C5CF8091BA
:100E90001E048E3F29F0909125049D7F9093250498
:100EA0009091250494FF02C0803F70F0909125043A
:100EB00092FD91C08E3E09F477C0E8F48A3A09F4B5
:100EC0007FC020F4882359F186E02CC0803E09F4CD
:100ED0007BC0813EC9F78091250482FD1AC087E05E
:100EE00080931B0480912504846080932504809165
:100EF00025048F7D0CC08C3F09F44EC060F4803F08
:100F000019F781E080931B0480912504806280930F
:100F1000250480E007C08E3FA9F18F3FA9F60E940B
:100F200025048CE081FF05C090911B0491509093A3
:100F30001B0490911B04191614F482FF1EC090919B
:100F400050049F5F983008F090E020914F042917DB
:100F5000A1F020911E04E92FF0E030E0EE0FFF1F1A
:100F6000E15CFB4F31832083409125042081318156
:100F7000342B3183208390935004807171F18091E0
:100F80001D045DCF8091250481FFC3CF809116049D
:100F900080931D0480E1C6CF10921B04109225049B
:100FA000109228048EE0BECF9091250491FF0AC0D4
:100FB000909116049E3E31F080931D0484E1B2CFDF
:100FC00010921B0484E0AECF81E080931B048091DB
:100FD000250488609CCF82E0A5CF80911B04181661
:100FE0000CF453CE80912504837C809325041092C9
:100FF0001B04809125048F778093250472CECF93B4
:10100000DF93EC0189AD0E94D4019EAF8DAFEF96C6
:1010100048815981495F5F4F481B590B4F3051053B
:1010200088F0998388839C01AFE7B0E00E94EC3997
:1010300027EF33E040E050E00E94A039822FDF919B
:10104000CF9108958FEFFBCFDC018D919C91DC0156
:10105000ED91FC910190F081E02D09940F931F9385
:10106000CF93DF93EB018C01060F171F69918091DD
:10107000AD069091AE060E9424080C171D07B1F72B
:10108000DF91CF911F910F910895E4EDF3E09EE47D
:1010900096838783BF0189E090E00C942E08E2ECF0
:1010A000F3E095E09787808BBF0182E190E00C949C
:1010B0002E08E0EBF3E016868787608BBF0182E1A4
:1010C00090E00C942E08EEE9F3E092E09787808B95
:1010D000BF0182E190E00C942E08ECE8F3E092E08E
:1010E0009787808BBF0182E190E00C942E08EAE79D
:1010F000F3E0818782E083876787408BBF0182E1CD
:1011000090E00C942E08E8E6F3E092E09787808B5D
:10111000BF0182E190E00C942E08E6E5F3E092E056
:101120009787808BBF0182E190E00C942E08CF93CB
:10113000DF9341504031E0F4C62FD82F642F606B0D
:101140008091AD069091AE060E9424086D2F6F77B6
:101150008091AD069091AE060E9424086C2F6F77A7
:101160008091AD069091AE06DF91CF910C9424084A
:10117000DF91CF91089580933D036EE273E082E1A9
:1011800090E00C942E0880932B036CE173E082E1D5
:1011900090E00C942E08809319036AE073E082E1DA
:1011A00090E00C942E088093070368EF72E082E1D0
:1011B00090E00C942E088093F50266EE72E082E1D6
:1011C00090E00C942E088093E30264ED72E082E1DB
:1011D00090E00C942E088093D10262EC72E082E1E0
:1011E00090E00C942E088093BF0260EB72E082E1E5
:1011F00090E00C942E088093AD026EE972E082E1DB
:1012000090E00C942E0880939B026CE872E082E1DF
:1012100090E00C942E08809389026AE772E082E1E4
:1012200090E00C942E088093770268E672E082E1E9
:1012300090E00C942E088093650266E572E082E1EE
:1012400090E00C942E088093530264E472E082E1F3
:1012500090E00C942E088093410262E372E082E1F8
:1012600090E00C942E0880932F0260E272E082E1FD
:1012700090E00C942E0880933E036EE273E082E1CE
:1012800090E00C942E0880932C036CE173E082E1D3
:1012900090E00C942E0880931A036AE073E082E1D8
:1012A00090E00C942E088093080368EF72E082E1CE
:1012B00090E00C942E088093F60266EE72E082E1D4
:1012C00090E00C942E088093E40264ED72E082E1D9
:1012D00090E00C942E088093D20262EC72E082E1DE
:1012E00090E00C942E088093C00260EB72E082E1E3
:1012F00090E00C942E088093AE026EE972E082E1D9
:1013000090E00C942E0880939C026CE872E082E1DD
:1013100090E00C942E0880938A026AE772E082E1E2
:1013200090E00C942E088093780268E672E082E1E7
:1013300090E00C942E088093660266E572E082E1EC
:1013400090E00C942E088093540264E472E082E1F1
:1013500090E00C942E088093420262E372E082E1F6
:1013600090E00C942E088093300260E272E082E1FB
:1013700090E00C942E08EEE0F2E081876387408BCA
:10138000BF0182E190E00C942E08ECEFF1E0818740
:101390006387408BBF0182E190E00C942E08EAEE57
:1013A000F1E08387608BBF0182E190E00C942E080E
:1013B000E8EDF1E08387608BBF0182E190E00C945F
:1013C0002E08E6ECF1E08387608BBF0182E190E0BC
:1013D0000C942E08E4EBF1E08187608BBF0182E181
:1013E00090E00C942E088093B20162EA71E082E1F1
:1013F00090E00C942E088093A00160E971E082E1F6
:1014000090E00C942E0880938E016EE771E082E1EB
:1014100090E00C942E0880937C016CE671E082E1F0
:1014200090E00C942E08EAE5F1E08787608BBF011D
:1014300082E190E00C942E088093580168E471E0FA
:1014400082E190E00C942E088093460166E371E0FF
:1014500082E190E00C942E08E4E2F1E08387608B57
:10146000BF0182E190E00C942E08E2E1F1E0878771
:10147000608BBF0182E190E00C942E08E0E0F1E087
:101480008787608BBF0182E190E00C942E080F9358
:101490001F93CF93C82F03E816E060ECF80182A5F4
:1014A00093A50E9424086C2F6F77F80182A593A55D
:1014B000CF911F910F910C942408CF93C82F41E036
:1014C00060E080E00E94970841E069E080E20E94CD
:1014D00097088C2FCF910C94470A1F920F920FB64A
:1014E0000F9211242F933F938F939F93AF93BF93AA
:1014F0008091300490913104A0913204B091330472
:1015000030912F0423E0230F2D3758F50196A11DAC
:10151000B11D20932F048093300490933104A09345
:101520003204B09333048091340490913504A09137
:101530003604B09137040196A11DB11D8093340487
:1015400090933504A0933604B0933704BF91AF91C4
:101550009F918F913F912F910F900FBE0F901F90F1
:10156000189526E8230F0296A11DB11DD2CF1F9218
:101570000F920FB60F9211242F933F934F935F93C7
:101580006F937F938F939F93AF93BF93EF93FF934B
:10159000E091DF03F091E0030995FF91EF91BF9196
:1015A000AF919F918F917F916F915F914F913F91FB
:1015B0002F910F900FBE0F901F9018951F920F92B2
:1015C0000FB60F9211242F933F934F935F936F9316
:1015D0007F938F939F93AF93BF93EF93FF93E0918C
:1015E000DD03F091DE030995FF91EF91BF91AF917B
:1015F0009F918F917F916F915F914F913F912F912B
:101600000F900FBE0F901F9018951F920F920FB65C
:101610000F9211242F933F934F935F936F937F9378
:101620008F939F93AF93BF93EF93FF9383E597E0DF
:101630000E949603FF91EF91BF91AF919F918F917F
:101640007F916F915F914F913F912F910F900FBEBE
:101650000F901F9018951F920F920FB60F921124A2
:101660002F938F939F93EF93FF93E0916307F091F4
:1016700064078081E0916907F0916A0782FD1BC0D1
:10168000908180916C078F5F8F7320916D07821717
:1016900041F0E0916C07F0E0ED5AF84F958F8093A0
:1016A0006C07FF91EF919F918F912F910F900FBE3B
:1016B0000F901F9018958081F4CF0F931F93CF93B5
:1016C000DF93EC01862F142F022F92E1E1EEF3E07D
:1016D000DE0101900D929A95E1F792E1E1EEF3E0DF
:1016E000DE01529601900D929A95E1F792E1E1EEBA
:1016F000F3E0DE01949601900D929A95E1F769AFBF
:101700004AAF0E94D401887FFE01FF9691838083B7
:101710009EAF8DAF1EAA1FAB08AFDF91CF911F9177
:101720000F910895E3E5F7E01382128288EE93E0CB
:10173000A0E0B0E084839583A683B78387E094E03C
:101740009183808385EC90E09587848784EC90E09A
:101750009787868780EC90E0918B808B81EC90E07E
:10176000938B828B82EC90E0958B848B86EC90E05F
:10177000978B868B118E128E138E148EF093F10739
:10178000E093F007E3E8F6E0118210821382128200
:10179000158214821782168211861086138612868D
:1017A0001586148617861686118A108A138A128A5D
:1017B000158A148A178A168A118E108E138E128E2D
:1017C000158E148E178E168E11A210A213A212A2BD
:1017D00015A214A217A216A211A610A680EF97E0D8
:1017E00093A782A714A615A616A613AA12AA15AA2D
:1017F00014AA8FEF9FEF97AB86AB91AF80AF83E0DA
:101800008093BD0613AE14AE15AE16AE109242070D
:10181000E2ECF6E080E8DF011D928A95E9F710928C
:1018200045071092460710924707109248071092FA
:10183000490710924A0710924B0710924C071092DA
:101840004D0710924E0710924F07109250071092BA
:1018500051071092520721E049E46EE08EE396E0D2
:101860000E945D0B21E048E46FE089EF95E00E9463
:101870005D0B21E04AE460E184EB95E00E945D0BA2
:1018800021E047E461E18FE695E00E945D0B21E0F5
:1018900045E062E18AE295E00E945D0B21E047E0CD
:1018A00063E185EE94E00E945D0B2AE047E064E18D
:1018B00080EA94E00E945D0B20E147E065E18BE562
:1018C00094E00C945D0B789484B5826084BD84B5FB
:1018D000816084BD85B5826085BD85B5816085BD2B
:1018E00080916E00816080936E00109281008091E3
:1018F000810082608093810080918100816080936B
:101900008100809180008160809380008091B1008F
:1019100084608093B1008091B00081608093B000BA
:1019200080917A00846080937A0080917A0082604E
:1019300080937A0080917A00816080937A00809110
:101940007A00806880937A001092C100E091AD0621
:10195000F091AE060190F081E02DA089B189C2E03E
:10196000CC93A485B5851C92A685B7858FE38C930F
:10197000108EA489B58986E08C93A289B3898C9155
:1019800080618C93A289B3898C9188608C93A289A1
:10199000B3898C9180688C930288F389E02D8081D3
:1019A0008F7D80831092AF061092B1061092B00620
:1019B0001092B8061092B7061092B6061092B506AD
:1019C0008FEF9FEF9093BA068093B9069093BC0671
:1019D0008093BB062FB7F894809130049091310426
:1019E000A0913204B09133042FBF809345079093A8
:1019F0004607A0934707B0934807109242071092FA
:101A0000BF061092BE061092C0061092C106109238
:101A10004407109243078091BD0681708260816007
:101A20008093BD060E942504C0932C0483E080931C
:101A30002B0462E00E94A30162E082E00E94A30105
:101A400081E00E942E010E94F2024B015C0194EFA2
:101A5000C92EDD24D394E12CF12C0E94F2026819E6
:101A600079098A099B09683E734081059105A8F3AD
:101A700021E0C21AD108E108F10888EE880E83E05F
:101A8000981EA11CB11CC114D104E104F10429F772
:101A90008091380480688093380482E08093390410
:101AA00080913E048F7E80933E040E94FA040E943F
:101AB0000C0515E1912E0AE4F02E13E085E1C82E05
:101AC000D3E1ED2EA7E24A2EB8E25B2E07E4CDE08B
:101AD000DC2E0E940C058531F1E19F0711F40C9476
:101AE0008C2210F00C942E1A8C34E2E09E0711F434
:101AF0000C94E82510F00C94F615843021E0920740
:101B000011F40C94C12208F0D7C58134910511F469
:101B10000C94872608F02BC58F32910511F40C9494
:101B2000E72908F0D7C48632910511F40C944C29AA
:101B300008F04BC48232910511F40C94B62808F0D9
:101B40000BC48032910511F40C94522810F00C94BF
:101B50008428069711F40C94E12253EF252E53E0CC
:101B6000352E64E0862E74E1772EE5E06E2EF101CD
:101B7000C191D1911F018EA981110AC0CE010E948D
:101B8000FF078F3F29F048AD682F8FA90E94970863
:101B90008EA9813009F589AD0E94D4019EAF8DAF29
:101BA000FE01FF9620813181281B390B3CAF2BAF02
:101BB000295F3F4F2F30310578F09C01287F31831A
:101BC000208343E0969587954A95E1F7888BBE017F
:101BD00082E190E00E942E088EA9833009F05BC05C
:101BE00089AD0E94D4019EAF8DAFFE01FF9640816A
:101BF0005181495F5F4F481B590B4F30510510F41D
:101C00000C949C39918380839C01AFEFBFE30E94C9
:101C1000EC392FEF33E040E050E00E94A039BA01E8
:101C2000A901505261097109CA01FE01ED5BFF4F24
:101C3000518340839EAF8DAFFE01EF5BFF4F20814C
:101C400031818217930739F19183808368AD6150A8
:101C5000603108F53296A080B180F0EEBF1A606E58
:101C60008091AD069091AE060E9424086A2D6F7790
:101C70008091AD069091AE060E942408B501660FD2
:101C8000672F661F770B71956F778091AD069091E6
:101C9000AE060E9424088EA9853081F443E650E008
:101CA0006DE97FEFCE010E94E901882339F0BE0182
:101CB0006E5E7F4F82E190E00E942E088EA98630F2
:101CC00071F444E650E061E070E0CE010E94AD02A4
:101CD000882329F0BE0182E190E00E942E088EA99F
:101CE0008730F1F489AD0E94D4019EAF8DAFFE0123
:101CF000FF9620813181281B390B3CAF2BAF295F28
:101D00003F4F2F30310560F09C01287F31832083C5
:101D1000892F8695888BBE0182E190E00E942E0873
:101D20008EA9883009F589AD0E94D4019EAF8DAF90
:101D3000FE01FF9620813181281B390B3CAF2BAF70
:101D4000295F3F4F2F30310578F09C01287F318388
:101D5000208323E0969587952A95E1F7888BBE012D
:101D600082E190E00E942E088EA9893081F442E041
:101D700050E06EEF7FEFCE010E94E901882339F039
:101D8000BE016E5E7F4F82E190E00E942E088EA918
:101D90008A3089F4CE010E94FF078F3F61F0682FDF
:101DA00070E066507F4F759567957595679548AD5E
:101DB0008FA90E9497088EA98B3081F44CE050E0E7
:101DC00064EF7FEFCE010E94E901882339F0BE0164
:101DD0006E5E7F4F82E190E00E942E088EA98C30CB
:101DE00071F443E650E070E060E0CE010E94AD0285
:101DF000882329F0BE0182E190E00E942E088EA97E
:101E00008D3081F444E150E06CEE7FEFCE010E9412
:101E1000E901882339F0BE016E5E7F4F82E190E0D8
:101E20000E942E088EA98E30A9F443E650E070E09F
:101E300060E0CE010E94AD02882361F08986BE0178
:101E400082E190E00E942E087986BE0182E190E056
:101E50000E942E088EA98F30A9F443E650E070E06E
:101E600060E0CE010E94AD02882361F06986BE0168
:101E700082E190E00E942E089986BE0182E190E006
:101E80000E942E088EA9803171F446E050E070E087
:101E900060E0CE010E94AD02882329F0BE0182E1FC
:101EA00090E00E942E088EA9813171F444E650E042
:101EB00070E060E0CE010E94AD02882329F0BE01EF
:101EC00082E190E00E942E088EA9823181F440E3E5
:101ED00050E060ED7FEFCE010E94E901882339F0E8
:101EE000BE016E5E7F4F82E190E00E942E088EA9B7
:101EF000833171F448E050E070E060E0CE010E9470
:101F0000AD02882329F0BE0182E190E00E942E08F4
:101F10008EA9843171F448E650E070E060E0CE01B3
:101F20000E94AD02882329F0BE0182E190E00E9468
:101F30002E088EA9853171F443E050E070E060E036
:101F4000CE010E94AD02882329F0BE0182E190E01B
:101F50000E942E088EA9863181F440ED50E065E0A4
:101F600070E0CE010E946002882339F0BE016C5DF2
:101F70007F4F82E190E00E942E088EA9873171F494
:101F800041E050E070E060E0CE010E94AD028823A5
:101F900029F0BE0182E190E00E942E088EA98831CE
:101FA000A9F441E150E070E060E0CE010E94AD0292
:101FB000882361F08986BE0182E190E00E942E08AC
:101FC0007986BE0182E190E00E942E088EA98931B7
:101FD000A9F441E150E070E060E0CE010E94AD0262
:101FE000882361F06986BE0182E190E00E942E089C
:101FF0009986BE0182E190E00E942E088EA98A3166
:10200000C9F443E650E06DE97FEFCE010E94E9019B
:10201000882381F08B8E5E0122E1A20EB11CB501F6
:1020200082E190E00E942E087B8EB50182E190E073
:102030000E942E088EA98B31C9F443E650E06DE969
:102040007FEFCE010E94E901882381F06B8E5E0153
:1020500082E1A80EB11CB50182E190E00E942E0839
:102060009B8EB50182E190E00E942E088EA98C31F2
:1020700081F444E650E06CE97FEFCE010E94E90173
:10208000882339F0BE016E5E7F4F82E190E00E94AE
:102090002E088EA98D3181F44CE751E06EE571E098
:1020A000CE010E946002882339F0BE016C5D7F4F33
:1020B00082E190E00E942E088EA98E3181F44DE6D7
:1020C00050E066E470E0CE010E946002882339F09F
:1020D000BE016C5D7F4F82E190E00E942E088EA9C8
:1020E0008F3181F44FEC50E067EA70E0CE010E943E
:1020F0006002882339F0BE016C5D7F4F82E190E081
:102100000E942E088EA9803281F446EA50E066E8EB
:1021100070E0CE010E946002882339F0BE016C5D40
:102120007F4F82E190E00E942E088EA9813281F4D7
:102130004FEE51E06BEC71E0CE010E94600288230B
:1021400039F0BE016C5D7F4F82E190E00E942E0865
:102150008EA9823281F445E850E06EE670E0CE014F
:102160000E946002882339F0BE016C5D7F4F82E1DE
:1021700090E00E942E088EA9833281F44CE251E057
:102180006FE071E0CE010E946002882339F0BE0149
:102190006C5D7F4F82E190E00E942E088EA9843210
:1021A00081F448E951E06DE771E0CE010E946002E0
:1021B000882339F0BE016C5D7F4F82E190E00E9480
:1021C0002E088EA9853281F445E551E067E371E080
:1021D000CE010E946002882339F0BE016C5D7F4F02
:1021E00082E190E00E942E088EA9863271F44FE1C0
:1021F00050E070E060E0CE010E94AD02882329F03B
:10220000BE0182E190E00E942E088EA9873271F40F
:1022100041E250E070E060E0CE010E94AD02882310
:1022200029F0BE0182E190E00E942E088EA988323A
:1022300071F445E050E070E060E0CE010E94AD0234
:10224000882329F0BE0182E190E00E942E088EA929
:10225000893281F44AEF50E060ED70E0CE010E94D7
:102260006002882339F0BE016C5D7F4F82E190E00F
:102270000E942E088EA98A3281F44EE051E06BEF65
:1022800070E0CE010E946002882339F0BE016C5DCF
:102290007F4F82E190E00E942E088EA98B3281F45C
:1022A00047E250E06AE070E0CE010E9460028823BD
:1022B00039F0BE016C5D7F4F82E190E00E942E08F4
:1022C0008EA98C3281F445E450E068E270E0CE01E2
:1022D0000E946002882339F0BE016C5D7F4F82E16D
:1022E00090E00E942E088EA98D3281F446E050E0E5
:1022F00070E060E0CE010E946002882339F0BE01E8
:102300006C5D7F4F82E190E00E942E088EA98E3294
:1023100081F442E150E06EEE7FEFCE010E94E901D0
:10232000882339F0BE016E5E7F4F82E190E00E940B
:102330002E0893E0291694E0390609F018CCE0E065
:10234000F0E0EF2B09F4C5CB0E948203882309F447
:10235000B9CB0E940000B4CB8432910511F40C94E7
:10236000E82810F00C941A2981E00E94B30981E05A
:102370000E94AB0981E00E94A30981E00E949B09B1
:1023800081E00E94930981E00E948B0981E00E9414
:10239000830981E00E947B0981E00E94730981E04A
:1023A0000E946B0981E00E94630981E00E945B0941
:1023B00081E00E94530981E00E944B0981E00E9464
:1023C000430981E00E943B09C8CB8A32910511F490
:1023D0000C942028C8F58832910511F40C947E29BC
:1023E00010F00C94B02983E00E94B30982E00E94AF
:1023F000AB0982E00E94A30982E00E949B0983E06E
:102400000E94930982E00E948B0982E00E94830966
:1024100082E00E947B0983E00E94730982E00E94AF
:102420006B0982E00E94630982E00E945B0983E0FD
:102430000E94530982E00E944B0982E00E944309F6
:1024400082E00E943B0989CB8C32910511F40C94F7
:10245000552A10F40C94912A8D32910511F40C94A4
:102460001E2A8E9709F079CB46E368E185E00E9449
:10247000C50980E10E94330980E10E942B0980E1B7
:102480000E94230980E10E941B0980E10E94130938
:1024900080E10E940B0980E10E94030980E10E9413
:1024A000FB0880E10E94F30880E10E94EB0880E1D4
:1024B0000E94E30880E10E94DB0880E10E94D308CB
:1024C00080E10E94CB0880E10E94C30880E10E9465
:1024D000BB0843CB8733910511F40C943726F0F4F5
:1024E0008333910511F40C94282660F4813391050F
:1024F00011F40C941E2610F00C94232681E70E9400
:102500000B0A2BCB8533910511F40C942D2610F07A
:102510000C9432268BE60E940B0A1FCB8B3391055D
:1025200011F40C94CD2660F48933910511F40C94C8
:102530003C2610F00C94A5268FE60E940B0A0DCBCA
:102540008D33910511F40C94D22610F40C9441268D
:102550008E33910511F40C94D7268034910509F03F
:10256000FCCA41E062E082E00E94C509F6CA8235F9
:10257000910511F40C94552608F04BC0893491054F
:1025800011F40C946926F0F48534910511F40C943F
:10259000502660F48334910511F40C94B92610F0A0
:1025A0000C948C2683E10E94030AD7CA87349105D4
:1025B00011F40C94912610F00C94962686E00E945B
:1025C000030ACBCA8D34910511F40C94C82660F42B
:1025D0008B34910511F40C949B2610F00C94A026DA
:1025E00089E00E94030AB9CA8F34910511F40C9452
:1025F0006E2610F40C94C3268035910511F40C94CA
:1026000073268135910509F0A8CA86E70E940B0A56
:10261000A4CA8A35910511F40C94AF26F0F48635DE
:10262000910511F40C94BE2660F48435910511F4E3
:102630000C945A2610F00C94642684E00E94030A3D
:102640008CCA8835910511F40C94B42610F00C94C2
:102650005F2687E70E940B0A80CA8E35910511F428
:102660000C94822660F48C35910511F40C94462666
:1026700010F00C947D268CE00E94030A6ECA8B3801
:10268000910511F40C94AA2640F48F35910509F0B8
:1026900064CA83E70E940B0A60CA8130980711F46C
:1026A0000C9405288230914009F057CA41E06FE749
:1026B00082E40E94970851CA8232E2E09E0711F438
:1026C0000C94E12708F0CEC1813621E0920711F485
:1026D0000C94D13008F06EC08731F1E09F0711F4FF
:1026E0000C947F2260F58331E1E09E0711F40C9495
:1026F000062388F4813121E0920711F40C9412230F
:1027000010F00C9418238E30914009F026CA83E013
:102710000E94450822CA853121E0920711F40C94E9
:102720008C2210F40C940C2380912E04863708F030
:1027300014CA865F80932E040E94470A0ECA8B310A
:10274000F1E09F0711F40C94B73398F48931E1E07C
:102750009E0709F44CC610F00C941E2380912E04A1
:10276000882309F4FAC9815080932E040E94470AF5
:10277000F4C98D3121E0920711F40C946E2410F409
:102780000C944B268E31F1E09F0711F40C947826BF
:102790008F31914009F0E1C980915503882311F4EC
:1027A0000C94B0221092550341E06AE082E00E944E
:1027B000C509D3C98936E1E09E0711F40C949A3219
:1027C00008F0AFC0853621E0920711F40C948D31EA
:1027D00008F042C08336F1E09F0711F40C941731E2
:1027E00010F00C9452311092740682E080937506BA
:1027F00081E08093760610922F062AE0209330061F
:10280000809331061092EA059CE49093EB05809347
:10281000EC052093A5059DE49093A6058093A7055C
:10282000109260059EE4909361058093620510927A
:102830001B0597E090931C0580931D051092D6040C
:102840009093D7042093D80410929104909392040B
:1028500080E18093930481C98736E1E09E0711F4FB
:102860000C94DE3110F00C943C3291E0909374069D
:10287000F092750636E03093760622E02093450606
:102880008AE08093470644E14093490690932F06DF
:1028900000933006309331062093000680930206A1
:1028A000C09204069093EA0548E44093EB05309308
:1028B000EC052093BB058093BD0546E14093BF0521
:1028C0009093A50549E44093A6053093A70520936E
:1028D00076058093780547E140937A0590936005EB
:1028E0004BE440936105309362052093310580935A
:1028F000330528E12093350510921B0527E020932E
:102900001C0590931D051092D6042093D704809344
:10291000D804109291042093920480E18093930450
:102920001CC98C3821E0920711F40C947C3308F018
:1029300047C08B36F1E09F0711F40C940B3310F471
:102940000C94D3328C36914009F007C9109274066A
:102950008DE5809375062AE02093760610922F0667
:102960008BE580933006209331061092EA058CE5C2
:102970008093EB0581E08093EC051092A5059EE520
:102980009093A6058093A705109260059CE0909314
:1029900061058093620510921B0597E090931C05DA
:1029A00080931D051092D6049093D7042093D804E9
:1029B000109291049093920480E180939304CDC887
:1029C0008039F1E09F0711F40C944433E0F58D3821
:1029D000914009F0C2C8109274062AE0209375064F
:1029E00080E18093760610922F0631E03093300616
:1029F000809331061092EA0592E09093EB05809364
:102A0000EC051092A5059CE49093A6058093A7057C
:102A1000109260059DE49093610580936205109289
:102A20001B0597E090931C0530931D051092D6046A
:102A30009093D7042093D804109291049093920419
:102A4000809393048AC88032F2E09F0711F40C94BB
:102A5000DB278132924009F080C860E48EE30E9457
:102A600059087BC88933E2E09E0711F40C94702565
:102A700008F05BC0803322E0920711F40C947625B5
:102A800038F58632F2E09F0711F40C94F32770F4C6
:102A90008432E2E09E0711F40C94E72710F00C94C6
:102AA000ED2760E18EE40E94590857C8883222E081
:102AB000920711F40C94FF2710F40C94F927893233
:102AC000924009F04AC864E281E70E94590845C86B
:102AD000843322E0920711F40C94582570F4823369
:102AE000F2E09F0711F40C944C2510F00C94522541
:102AF00060E385E00E94130A30C88633E2E09E0757
:102B000011F40C94642510F40C945E25873322E0B4
:102B1000920711F40C946A258833924009F01DC87D
:102B20006BE385E00E94130A18C88334F2E09F0724
:102B300011F40C94FA2550F58D33E2E09E0711F460
:102B40000C94182678F48B3322E0920711F40C943D
:102B5000122610F00C947C2563E385E00E94130A92
:102B60000C94AD0D8134F2E09F0711F40C94C42550
:102B700010F00C9406268E33924011F00C94AD0D9B
:102B80006CE485E00E94130A0C94AD0D8734F2E0EA
:102B90009F0711F40C94D62578F48534E2E09E0763
:102BA00011F40C948E2510F00C94D02564E285E08D
:102BB0000E94130A0C94AD0D893422E0920711F49F
:102BC0000C94A62510F40C94DC258A34F2E09F07BF
:102BD00011F40C94E2258B34924011F00C94AD0D5D
:102BE0006AE285E00E94130A0C94AD0D8534E8E09A
:102BF0009E0711F40C94BC2408F002C2853224E034
:102C0000920711F40C94D82B08F0FDC08D35F2E03A
:102C10009F0711F40C94B82508F05BC08435E2E0FE
:102C20009E0711F40C949A2528F5803522E092072E
:102C300011F40C94B22578F48E34F2E09F0711F46D
:102C40000C940C2610F00C94AC2560E284E10E94F8
:102C5000130A0C94AD0D8235E2E09E0711F40C943A
:102C6000942510F00C94CA256DE285E00E94130AA9
:102C70000C94AD0D883522E0920711F40C94F425E4
:102C800078F48635F2E09F0711F40C94002610F0DA
:102C90000C94882568E184E10E94130A0C94AD0D20
:102CA0008A35E2E09E0709F43BCF10F40C94A0258E
:102CB0008B3522E0920711F40C94EE258C3592406E
:102CC00011F00C94AD0D69E385E00E94130A0C9499
:102CD000AD0D8B36F3E09F0711F40C945A2478F570
:102CE0008E30E3E09E0711F40C940123A0F48F359D
:102CF00022E0920711F40C94822510F40C94BE2566
:102D00008B38924011F00C94AD0D65E485E00E9483
:102D1000130A0C94AD0D893623E0920711F40C943C
:102D2000502410F00C9455248C31934011F00C94E5
:102D3000AD0D6AE385E00E94130A0C94AD0D803955
:102D400023E0920711F40C945F24B0F48C38F3E084
:102D50009F0711F40C9469248D3823E0920711F435
:102D60000C9464248C36934011F00C94AD0D83E0E8
:102D70000E94240A0C94AD0D8232F4E09F0711F4F6
:102D80000C94A82BE8F48132944011F00C94AD0D12
:102D900049E661E080E10E94C50981E180939104E8
:102DA0000093920481E08093930482E08093620414
:102DB00082E18093640487E0809366040C94AD0DF7
:102DC0008332F4E09F0711F40C94C02B84329440BA
:102DD00011F00C94AD0D41E761E080E10E94C5095E
:102DE00081E1809391040093920481E080939304A5
:102DF00082E08093620482E18093640486E08093A1
:102E000066040C94AD0D8233E8E09E0711F40C9437
:102E10007A2408F090C0833228E0920711F40C94D1
:102E2000012B08F042C08932F4E09F0711F40C94A2
:102E3000202C08F58732E4E09E0711F40C94F02B67
:102E400010F00C94082C43E661E080E10E94C50973
:102E500081E1809391040093920481E08093930434
:102E600082E08093620482E18093640484E1809331
:102E700066040C94AD0D813228E0920711F40C9495
:102E8000C82A10F00C94E52A8032984011F00C9476
:102E9000AD0D41E062E080E10E94C50940E060E0E4
:102EA00080E10E94C5090C94AD0D873228E092079D
:102EB00011F40C94542B28F58532F8E09F0711F497
:102EC0000C941D2B10F00C94382B41E062E080E153
:102ED0000E94C50946E460E080E10E94C50981E1E5
:102EE000809391040093920491E09093930492E074
:102EF000909362048093640487E0809366040C944A
:102F0000AD0D8932E8E09E0711F40C948D2B10F47E
:102F10000C94712B803328E0920711F40C949E24BA
:102F20008133984011F00C94AD0D6EE082E00E9468
:102F30003E0A0C94AD0D8A33F8E09F0711F40C940F
:102F4000102528F58633E8E09E0711F40C948C24B4
:102F500078F4843328E0920711F40C94802410F064
:102F60000C94862462E182E00E943E0A0C94AD0D2E
:102F70008833F8E09F0711F40C94922410F00C941D
:102F8000982462E082E00E943E0A0C94AD0D8E33DC
:102F9000E8E09E0711F40C94462578F48C3328E081
:102FA000920711F40C94A42410F00C9440256EE0C8
:102FB00086E00E943E0A0C94AD0D8234F8E09F0733
:102FC00011F40C94342558F48134984011F00C9489
:102FD000AD0D66E383E00E943E0A0C94AD0D833490
:102FE000F8E09F0711F40C9428258434984011F0E0
:102FF0000C94AD0D6CE483E00E943E0A0C94AD0D80
:103000008C31E9E09E0711F40C94B02408F008C15B
:10301000863528E0920711F40C942E2508F05CC048
:103020008D34F8E09F0711F40C943A2528F5893483
:10303000E8E09E0711F40C94D42478F4873428E057
:10304000920711F40C94F82410F00C94FE2465E619
:1030500083E00E943E0A0C94AD0D8B34F8E09F078C
:1030600011F40C94042510F00C940A256EE284E00F
:103070000E943E0A0C94AD0D8135E8E09E0711F4E4
:103080000C94B62478F48F3428E0920711F40C9451
:10309000DA2410F00C94E02467E080E00E943E0AFD
:1030A0000C94AD0D8335F8E09F0711F40C94F224D5
:1030B00010F40C94C2248435E8E09E0711F40C94BB
:1030C000C8248535984011F00C94AD0D63E085E07F
:1030D0000E943E0A0C94AD0D8E3528E0920711F443
:1030E0000C94EC2428F58A35F8E09F0711F40C9431
:1030F0001C2578F48835E8E09E0711F40C9422250D
:1031000010F00C94CE2464E784E00E943E0A0C94F4
:10311000AD0D8C3528E0920711F40C94AA2410F020
:103120000C94E6246CE384E00E943E0A0C94AD0DFE
:103130008231F9E09F0711F40C94FF2CB8F48B381E
:10314000E8E09E0711F40C9416258131F9E09F0701
:1031500011F40C94782C8F35984011F00C94AD0D2F
:103160006EE083E00E943E0A0C94AD0D8431E9E0EC
:103170009E0711F40C946D2D10F40C94B92C893128
:1031800029E0920711F40C94382C8A31994011F0FF
:103190000C94AD0D61E088E00E94E1096AE283E0F1
:1031A0000E94E1094DE063E08EE00E94C50987E1DD
:1031B00080936005D092610581E08093620522E0F2
:1031C000209331059EE0909333058093350531E1DE
:1031D00030931B0500931C0580931D052093EC0480
:1031E0009093EE041092F00442E14093D604F092E2
:1031F000D7048093D8042093A7049093A90445E0B2
:103200004093AB0430939104009392048093930411
:103210002093620490936404E09266040C94AD0DD4
:103220008F34F0E19F0711F40C94412F08F082C015
:103230008434E0E19E0711F40C94612F08F04CC037
:10324000843320E1920711F40C94E52E80F582334B
:10325000F0E19F0711F40C94912E10F00C94B32E12
:103260008133904111F00C94AD0D60E082E20E9438
:10327000D80960E085E00E94D80960E086E00E94FD
:10328000D80960E08CE00E94D80960E082E10E94E9
:10329000D8096FE784E20E94D80961E083E20E94C6
:1032A000D80961E088E10E94D8090C94AD0D803402
:1032B000F0E19F0709F455C9813420E1920711F428
:1032C0000C944B2F8A33904111F00C94AD0D8EE489
:1032D0000E946D080C94AD0D8834F0E19F0711F445
:1032E0000C94702F70F48634E0E19E0711F40C9476
:1032F000662F10F00C946B2F83E50E9463080C94EA
:10330000AD0D8A3420E1920711F40C94752F10F45E
:103310000C943C2F8B34F0E19F0711F40C947A2F1E
:103320008C34904111F00C94AD0D8BE40E946D082B
:103330000C94AD0D8B35E0E19E0711F40C947F2FBA
:1033400070F5833520E1920711F40C945C2F70F432
:103350008135F0E19F0711F40C94172F10F00C94B5
:103360002D2F81E40E9463080C94AD0D8535E0E1BA
:103370009E0711F40C94372F10F40C94322F8735DC
:1033800020E1920711F40C94282F8935904111F017
:103390000C94AD0D86E40E9463080C94AD0D8E3044
:1033A000F1E19F0709F4B3C9B0F48E35E0E19E075F
:1033B00011F40C94462F8430F1E19F0711F40C9422
:1033C000C1228D35904111F00C94AD0D8EE40E9418
:1033D00063080C94AD0D8231E1E19E0711F40C9469
:1033E0001E2360F48131914111F00C94AD0D40E049
:1033F00062E080E00E94BB090C94AD0D8331E1E1F5
:103400009E0711F40C943C2E8431914111F00C94E0
:10341000AD0D40E06EE081E00E94C50940E06FE044
:1034200081E00E94C50940E062E181E00E94C50997
:1034300040E063E181E00E94C50940E06DE088E082
:103440000E94C50940E06DE089E00E94C50941E0A5
:1034500060E080E00E94BB090C94AD0D893121E24F
:10346000920711F40C94BA2208F0EFC48836F9E1FF
:103470009F0711F40C94CB3008F06CC38F34E2E159
:103480009E0711F40C942E3008F043C28A3621E1D5
:10349000920711F40C94FE3608F00EC18136F1E16A
:1034A0009F0711F40C942F3438F58931E1E19E0720
:1034B00011F40C94BA2248F4873121E1920711F4F7
:1034C0000C947F2208F04AC92FC98D31F1E19F0782
:1034D00011F40C946E248F3121E1920709F45CC938
:1034E0008A31914111F00C94AD0D41E061E081E42D
:1034F0000E9497080C94AD0D8536F1E19F0711F4F9
:103500000C94703508F070C08336E1E19E0711F429
:103510000C949D3410F00C9406354CE061E186E08B
:103520000E94BB094CE061E186E10E94BB092BE0EF
:1035300020937406F092750681E0809376061093CE
:10354000450696E0909347068093490620932F0600
:1035500000933006809331061093000626E12093F5
:10356000020680930406D092EA05F092EB05809360
:10357000EC051093CD059093CF0532E03093D10543
:10358000D092A5050093A6058093A7051093880502
:1035900020938A0530938C051092600530E13093BA
:1035A00061058093620510921B0535E030931C0580
:1035B00080931D053093D604F092D7048093D804ED
:1035C0001093B9049093BB049093BD04309391047D
:1035D00000939204809393041093740420937604D0
:1035E000909378040C94AD0D873621E1920711F485
:1035F0000C94443610F40C94DA358836F1E19F07C8
:1036000011F40C94AE368936914111F00C94AD0D45
:103610008EE080937406F092750681E080937606C2
:1036200010934506109349069FE090932F06F09261
:10363000300680933106109300061093040698E13B
:103640009093EA05F092EB058093EC051093BB058F
:103650001092BF0599E19093A5050093A60580936C
:10366000A7051093760510927A059AE1909360056C
:10367000F0926105809362051093430595E0909365
:1036800047052BE120931B0500931C0580931D0526
:103690001093FE04909302051092D6049CE490933C
:1036A000D7048093D804109291049DE490939204DF
:1036B000809393040C94AD0D8434E2E19E0711F4E1
:1036C0000C94473008F0F7C08D3821E1920711F4CF
:1036D0000C94393808F076C08C36F1E19F0711F46C
:1036E0000C94D13710F40C9467378C38914111F059
:1036F0000C94AD0D81E080937406F0927506809372
:103700007606109345061093470699E09093490674
:1037100080932F06009330068093310610930006A5
:10372000E0920206909304062EE12093EA05F092BF
:10373000EB058093EC051093DF051093E10598E00D
:103740009093E3052093A5050093A6058093A70514
:1037500010939A05E0929C0590939E052FE120938B
:103760006005F092610580936205109355051093F2
:1037700057059093590520931B0500931C058093D2
:103780001D0510931005E09212059093140525E293
:103790002093D604F092D7048093D8041093CB04DE
:1037A0001093CD049093CF0420939104009392043E
:1037B0008093930410938604E092880490938A0483
:1037C0000C94AD0D8A33F2E19F0711F40C94603034
:1037D000813422E1920711F40C943D3080399141FB
:1037E00011F00C94AD0D21E220937406F092750651
:1037F00091E0909376061093690610936B0682E031
:1038000080936D0620932F06009330069093310627
:1038100010932406E09226068093280622E2209345
:10382000EA05F092EB059093EC051093DF051093F9
:10383000E1058093E3052093A5050093A6059093E9
:10384000A70510939A05E0929C0580939E0523E2BC
:1038500020936005F09261059093620510935505E1
:10386000109357058093590520931B0500931C0561
:1038700090931D0510931005E09212058093140596
:1038800024E22093D604F092D7049093D8041093A6
:10389000CB041093CD048093CF0420939104009324
:1038A00092049093930410938604E092880480938A
:1038B0008A040C94AD0D8834F2E19F0711F40C9446
:1038C000513070F48634E2E19E0711F40C943D30DF
:1038D00010F00C944C3082E10E9463080C94AD0D02
:1038E0008A3422E1920711F40C94563010F40C94AF
:1038F00029308B34F2E19F0711F40C945B308C3447
:10390000924111F00C94AD0D88E20E946D080C9468
:10391000AD0D8931E3E19E0711F40C94413908F0B3
:103920009BC0893522E1920711F40C941F3020F5D9
:103930008335F2E19F0711F40C94423050F4803546
:10394000924111F00C9415308CE20E9463080C94A3
:10395000AD0D8535F2E19F0711F40C94243010F47D
:103960000C941A308735924111F00C94AD0D8FE014
:103970000E9463080C94AD0D8E30F3E19F0709F4AB
:1039800040C6B0F48D35E2E19E0711F40C9433305B
:103990008E35F2E19F0711F40C9438308B3592414B
:1039A00011F00C94AD0D8CE20E946D080C94AD0DDD
:1039B0008231E3E19E0711F40C945E3910F58131F8
:1039C000934111F00C94AD0D60E081E00E94D809A4
:1039D00060E084E00E94D80960E085E00E94D80998
:1039E0008CE28093D604F092D70481E08093D804CF
:1039F0001093CB041093CD0482E08093CF040C94F9
:103A0000AD0D8331980711F40C947B3984319341C7
:103A100011F00C94AD0D61E081E00E94CF0960E0EF
:103A200084E00E94CF0960E082E00E94CF0960E05C
:103A300085E00E94CF098DE280939104F092920478
:103A400081E08093930410938604E092880482E0DE
:103A500080938A040C94AD0D873623E1920711F40C
:103A60000C94A13008F041C08336F3E19F0711F4B4
:103A70000C948F3058F58136E3E19E0711F40C94D5
:103A8000833010F00C9489308A31934111F00C94FA
:103A9000AD0D60E081E00E94CF0960E084E00E940B
:103AA000CF0960E085E00E94CF098BE2809391040A
:103AB000F092920481E08093930410938604E09244
:103AC000880482E080938A040C94AD0D8536E3E18E
:103AD0009E0711F40C94953010F00C949B3063E029
:103AE00088E00E94EA090C94AD0D833629E1920723
:103AF00011F40C94B330A0F48136F9E19F0711F46E
:103B00000C94A73010F00C94AD308836934111F02E
:103B10000C94AD0D63E088E10E94EA090C94AD0DB0
:103B20008536F9E19F0711F40C94BF3010F40C9422
:103B3000B9308636E9E19E0711F40C94C53087361A
:103B4000994111F00C94AD0D62E089E10E94EA09FF
:103B50000C94AD0D833420E2920709F491C008F073
:103B6000ACC08033F0E29F0709F4A8C508F055C047
:103B70008732E0E29E0709F455C628F5833220E239
:103B8000920709F468C690F48132F0E29F0709F4C5
:103B90004FC608F053C68032904211F00C94AD0D20
:103BA00061E087E00E942C0A0C94AD0D8532F0E2B2
:103BB0009F0709F431C608F067C661E086E00E94FD
:103BC0002C0A0C94AD0D8B32E0E29E0709F43CC642
:103BD00068F4893220E2920709F450C608F016C64C
:103BE00060E088E00E942C0A0C94AD0D8D32F0E26A
:103BF0009F0709F43DC608F44DC68E32E0E29E07E9
:103C000009F430C68F32904211F00C94AD0D60E093
:103C100082E00E942C0A0C94AD0D883320E29207BA
:103C200009F446C500F58433F0E29F0709F42EC578
:103C300068F48233E0E29E0709F41CC508F020C551
:103C400060E080E00E94350A0C94AD0D863320E2DE
:103C5000920709F421C508F025C564E080E00E94C0
:103C6000350A0C94AD0D8C33F0E29F0709F42CC596
:103C700068F48A33E0E29E0709F492C508F0B4C5FF
:103C80006EE080E00E94350A0C94AD0D8E3320E288
:103C9000920709F4B5C508F4ADC58134F0E29F0779
:103CA00009F45AC58234904211F00C94AD0D61E4D0
:103CB00081E00E94350A0C94AD0D8435E0E29E0748
:103CC00009F426C508F050C08B3420E2920709F4AD
:103CD0005BC500F58734F0E29F0709F449C568F435
:103CE0008534E0E29E0709F407C508F03BC566E2AB
:103CF00084E00E94350A0C94AD0D893420E29207CD
:103D000009F40CC508F03AC569E284E00E94350A5E
:103D10000C94AD0D8F34F0E29F0709F405C568F4EB
:103D20008D34E0E29E0709F459C508F051C56CE2F4
:103D300084E00E94350A0C94AD0D813520E2920793
:103D400009F4CEC408F4F6C48235F0E29F0709F402
:103D5000D9C48335904211F00C94AD0D65E284E036
:103D60000E94350A0C94AD0D8C35E0E29E0709F4F3
:103D7000B1C400F5883520E2920709F41DC568F446
:103D80008635F0E29F0709F41DC508F0AFC46EE167
:103D900084E00E94350A0C94AD0D8A35E0E29E075E
:103DA00009F404C508F0F6C46DE184E00E94350A08
:103DB0000C94AD0D8B3820E2920709F47FC490F487
:103DC0008E35F0E29F0709F4C1C408F4B9C48F35F9
:103DD000904211F00C94AD0D6CE180E00E94350A28
:103DE0000C94AD0D8131F1E29F0709F42EC460F40B
:103DF0008E30914211F00C94AD0D45E064E181E00C
:103E00000E94C5090C94AD0D8531F1E29F0709F4BC
:103E100090C38631914211F00C94AD0D41E060E009
:103E200080E00E94970860912D04693010F00C9496
:103E3000AD0D6F5F60932D0441E080E20E94970812
:103E400080E00E94470A0C94AD0D8933E0E49E07A0
:103E500009F4D0C708F0B7C1853520E3920711F403
:103E60000C94982F08F0CDC08C33F0E39F0711F429
:103E70000C94063008F063C08233E0E39E0711F42F
:103E80000C94DE2F70F58C3023E2920709F4E4C322
:103E900098F48B31F1E29F0711F40C94BE2D08F4D5
:103EA00024CB8C31914211F00C94AD0D61E280E095
:103EB0000E94350A0C94AD0D8033F0E39F0711F496
:103EC0000C94013010F00C94D92F8A30994211F0E3
:103ED0000C94AD0D41E06FE78AE40E9497080C94C2
:103EE000AD0D8633F0E39F0711F40C94ED2F70F4C1
:103EF0008433E0E39E0711F40C94E32F10F00C944C
:103F0000E82F85E50E9483080C94AD0D883320E3EB
:103F1000920711F40C94F72F10F40C94F22F8933BC
:103F2000F0E39F0711F40C94FC2F8A33904311F0B7
:103F30000C94AD0D8BE30E946D080C94AD0D8A348A
:103F4000E0E39E0711F40C94C52F40F5863420E37E
:103F5000920711F40C94BB2F98F48434F0E39F077C
:103F600011F40C94B62F10F00C94892F81349043E7
:103F700011F00C94AD0D86E10E946D080C94AD0D0E
:103F80008834F0E39F0711F40C94C02F10F00C94C8
:103F90009D2F8CE10E946D080C94AD0D8035E0E3FF
:103FA0009E0711F40C94A22F98F48C3420E392070E
:103FB00011F40C94CF2F10F40C94CA2F8F3490432B
:103FC00011F00C94AD0D8BE10E9463080C94AD0DC3
:103FD000823520E3920711F40C948E2F10F40C9488
:103FE000842F8335F0E39F0711F40C94B12F8435AF
:103FF000904311F00C94AD0D8CE10E9463080C9479
:10400000AD0D8336E1E39E0711F40C946B3008F09C
:1040100081C0813121E3920711F40C946D2E80F55B
:104020008C35F0E39F0711F40C940B30B0F4893514
:10403000E0E39E0711F40C94932F8B35F0E39F0778
:1040400011F40C94D42F8735904311F00C94AD0DDE
:1040500087E10E9463080C94AD0D8E35E0E39E0766
:1040600011F40C94AC2F10F40C94A72F8F359043BF
:1040700011F00C94AD0D83E30E948D080C94AD0DEE
:104080008931E1E39E0711F40C94612ED0F4833161
:1040900021E3920711F40C94792E10F40C94852EE0
:1040A0008431914311F00C94AD0D40E566E786E153
:1040B0000E9477084CE061E086E10E94BB090C9405
:1040C000AD0D8C3121E3920711F40C94103088F47B
:1040D0008A31914311F00C94AD0D40E062E086E12D
:1040E0000E94BB0940E061E086E10E94BB090C949C
:1040F000AD0D813621E3920711F40C9465308236C0
:10410000914311F00C94AD0D61E087E00E94EA0943
:104110000C94AD0D8033F0E49F0709F470C658F598
:104120008736E1E39E0711F40C947D3078F48536F0
:1041300021E3920711F40C94713010F00C94773055
:1041400063E087E00E94EA090C94AD0D8C30F3E344
:104150009F0709F481C28A3029E3920709F4BACE95
:104160008836914311F00C94AD0D63E087E10E9415
:10417000EA090C94AD0D8433F0E49F0709F426C6D8
:1041800060F48233E0E49E0709F416C608F019C60D
:1041900080E30E944F080C94AD0D863320E4920713
:1041A00009F41EC608F417C68733F0E49F0709F424
:1041B0001CC68833904411F00C94AD0D8BE30E9423
:1041C0004F080C94AD0D8D35E0E49E0709F453C6FD
:1041D00008F0A4C08C3420E4920709F49CC608F0CF
:1041E00051C08334F0E49F0709F459C618F58D33A4
:1041F000E0E49E0709F46CC660F48B3320E4920778
:1042000009F461C608F000C681E30E94F3090C942A
:10421000AD0D8134F0E49F0709F45FC608F049C68C
:104220008E33904411F00C94AD0D8FE20E94FB0987
:104230000C94AD0D8734F0E49F0709F45DC660F47B
:104240008534E0E49E0709F4F3C508F050C68FE119
:104250000E94F3090C94AD0D893420E4920709F40F
:10426000FBC508F44EC68A34F0E49F0709F44EC635
:104270008B34904411F00C94AD0D8CE20E94F30944
:104280000C94AD0D8435E0E49E0709F4DBC5F0F431
:10429000803520E4920709F4E9C560F48E34F0E437
:1042A0009F0709F40BC608F0DCC586E20E94FB09F3
:1042B0000C94AD0D8235E0E49E0709F4BEC508F00C
:1042C00011C681E20E944F080C94AD0D883520E4A0
:1042D000920709F4DFC560F48635F0E49F0709F41E
:1042E000E3C508F0A0C589E20E944F080C94AD0D0B
:1042F0008A35E0E49E0709F4C8C508F4A8C58B35E3
:1043000020E4920709F40CC68C35904411F00C940B
:10431000AD0D89E30E944F080C94AD0D8A31F1E593
:104320009F0711F40C94A03808F07EC08C36E1E4AD
:104330009E0709F404C640F58C3121E4920709F484
:104340006DC588F48F35F0E49F0709F462C508F461
:1043500097C58B38904411F00C94AD0D88E10E9404
:10436000FB090C94AD0D8A36F1E49F0709F4DDC515
:1043700008F0E0C58936914411F00C94AD0D80E051
:104380000E941C0A0C94AD0D8131F1E59F0711F4D8
:104390000C94C138A0F48D38E1E49E0709F4D9C526
:1043A0008039F1E49F0709F4CFC58C38914411F0AE
:1043B0000C94AD0D86E00E941C0A0C94AD0D833167
:1043C000E1E59E0711F40C94013910F40C94E138E6
:1043D000843121E5920711F40C94213989319145FA
:1043E00011F00C94AD0D66E081E00E94D80960E008
:1043F00084E00E94D80960E082E00E94D80960E071
:1044000085E00E94D809F6E2F093D604F092D70432
:1044100081E08093D8041093A7041093A90482E04C
:104420008093AB040C94AD0D8936F1E69F0709F437
:10443000B3C568F58436E1E69E0709F499C588F4AA
:10444000823621E6920709F489C508F08CC58136C9
:10445000914611F00C94AD0D84E70E945D0A0C9416
:10446000AD0D863621E6920709F48CC508F485C5A2
:104470008736F1E69F0709F48AC58836914611F020
:104480000C94AD0D8BE70E945D0A0C94AD0D82304B
:10449000E1E89E0709F4E7C088F48B3621E692072D
:1044A00009F484C508F47DC58C36914611F00C944E
:1044B000AD0D8FE70E945D0A0C94AD0D8C3021EAA2
:1044C0009207B1F060F48A30914A11F00C94AD0D6E
:1044D00041E06FE38AE40E9497080C94AD0D8A30A6
:1044E00021EB9207A9F38C30914B11F00C94AD0D98
:1044F00041E060E48AE40E9497080C94AD0D80913D
:104500002E048F3710F00C94AD0D8F5F80932E0426
:104510000E94470A0C94AD0D80912E048B3010F44C
:104520000C94AD0D8A5080932E040E94470A0C947F
:10453000AD0D41E060E080E00E94970860912D049D
:10454000662311F40C94AD0D615060932D0441E08D
:1045500080E20E94970880E00E94470A0C94AD0D0B
:1045600081E08093550340E06AE082E00E94C50943
:104570000C94AD0D41E06FE781E40E9497080C9424
:10458000AD0D80915403882371F01092540341E0E3
:1045900068E081E00E94C50941E06FE780E50E9484
:1045A00097080C94AD0D81E08093540340E068E0DF
:1045B0000E94C50941E061E080E50E9497080C94E3
:1045C000AD0D80915303882371F01092530341E0A5
:1045D00069E081E00E94C50941E06FE781E50E9442
:1045E00097080C94AD0D81E08093530340E069E09F
:1045F0000E94C50941E061E081E50E9497080C94A2
:10460000AD0D82E00E9445080C94AD0D6BE38BE08C
:104610000E942C0A0C94AD0D67E48BE00E942C0ADA
:104620000C94AD0D6FE78BE00E942C0A0C94AD0D3D
:104630006FE28BE00E942C0A0C94AD0D41E062E029
:1046400080E00E94BB090C94AD0D4FE361E083E074
:104650000E94C5090C94AD0D41E06AE08AE40E9415
:1046600097080C94AD0D41E060E082E40E94970849
:104670000C94AD0D61E080E00E94350A0C94AD0D04
:1046800062E080E00E94350A0C94AD0D63E080E0AA
:104690000E94350A0C94AD0D68E080E00E94350A56
:1046A0000C94AD0D69E080E00E94350A0C94AD0DCC
:1046B0006BE080E00E94350A0C94AD0D68E180E06B
:1046C0000E94350A0C94AD0D69E180E00E94350A24
:1046D0000C94AD0D60E280E00E94350A0C94AD0DA3
:1046E00068E184E00E94350A0C94AD0D69E184E034
:1046F0000E94350A0C94AD0D6AE184E00E94350AEF
:104700000C94AD0D6BE184E00E94350A0C94AD0D64
:104710006CE184E00E94350A0C94AD0D6FE284E0F8
:104720000E94350A0C94AD0D60E284E00E94350AC7
:104730000C94AD0D61E284E00E94350A0C94AD0D3D
:1047400062E284E00E94350A0C94AD0D63E284E0DD
:104750000E94350A0C94AD0D64E284E00E94350A93
:104760000C94AD0D67E284E00E94350A0C94AD0D07
:1047700068E284E00E94350A0C94AD0D6AE284E0A0
:104780000E94350A0C94AD0D6BE284E00E94350A5C
:104790000C94AD0D6DE284E00E94350A0C94AD0DD1
:1047A0006EE284E00E94350A0C94AD0D6FE780E064
:1047B0000E94350A0C94AD0D61E780E00E94350A35
:1047C0000C94AD0D6FE481E00E94350A0C94AD0DA0
:1047D00064E481E00E94350A0C94AD0D6EE481E042
:1047E0000E94350A0C94AD0D6FE581E00E94350AF8
:1047F0000C94AD0D60E581E00E94350A0C94AD0D7E
:1048000063E581E00E94350A0C94AD0D60E087E01D
:104810000E942C0A0C94AD0D60E086E00E942C0AE8
:104820000C94AD0D61E088E00E942C0A0C94AD0D53
:1048300061E089E00E942C0A0C94AD0D60E089E0F3
:104840000E942C0A0C94AD0D41E06FE78EE00E94AF
:1048500097080C94AD0D41E060E08EE00E9497084F
:104860000C94AD0D61E082E00E942C0A0C94AD0D19
:1048700062E082E00E942C0A0C94AD0D63E081E0BE
:104880000E942C0A0C94AD0D67E081E00E942C0A76
:104890000C94AD0D65E081E00E942C0A0C94AD0DE6
:1048A00080E00E94240A0C94AD0D81E00E94240A4D
:1048B0000C94AD0D82E00E94240A0C94AD0D84E0AE
:1048C0000E94240A0C94AD0D85E00E94240A0C94E9
:1048D000AD0D86E00E94240A0C94AD0D40E062E02C
:1048E00082E00E94C50941E064E082E00E94C509BF
:1048F0000C94AD0D60E182E00E943E0A0C94AD0D77
:104900006DE082E00E943E0A0C94AD0D6BE082E007
:104910000E943E0A0C94AD0D64E082E00E943E0AC3
:104920000C94AD0D60E083E00E943E0A0C94AD0D46
:1049300069E083E00E943E0A0C94AD0D6AE083E0DA
:104940000E943E0A0C94AD0D6CE083E00E943E0A8A
:104950000C94AD0D60E183E00E943E0A0C94AD0D15
:1049600064E183E00E943E0A0C94AD0D65E183E0B2
:104970000E943E0A0C94AD0D6AE784E00E943E0A54
:104980000C94AD0D60E085E00E943E0A0C94AD0DE4
:1049900061E085E00E943E0A0C94AD0D62E085E086
:1049A0000E943E0A0C94AD0D6CE085E00E943E0A28
:1049B0000C94AD0D6BE185E00E943E0A0C94AD0DA8
:1049C00063E285E00E943E0A0C94AD0D66E283E04E
:1049D0000E943E0A0C94AD0D67E283E00E943E0AFD
:1049E0000C94AD0D63E483E00E943E0A0C94AD0D7F
:1049F00069E683E00E943E0A0C94AD0D68E783E00F
:104A00000E943E0A0C94AD0D69E384E00E943E0AC8
:104A10000C94AD0D6AE384E00E943E0A0C94AD0D47
:104A20006CE785E00E943E0A0C94AD0D61E080E0E9
:104A30000E943E0A0C94AD0D62E080E00E943E0AA6
:104A40000C94AD0D63E080E00E943E0A0C94AD0D25
:104A500064E080E00E943E0A0C94AD0D65E080E0C9
:104A60000E943E0A0C94AD0D66E080E00E943E0A72
:104A70000C94AD0D68E080E00E943E0A0C94AD0DF0
:104A80006FE086E00E943E0A0C94AD0D60E186E086
:104A90000E943E0A0C94AD0D61E385E00E94130A6A
:104AA0000C94AD0D61E485E00E94130A0C94AD0DE9
:104AB00062E485E00E94130A0C94AD0D6EE285E07D
:104AC0000E94130A0C94AD0D66E385E00E94130A60
:104AD0000C94AD0D68E385E00E94130A0C94AD0DB3
:104AE0006CE385E00E94130A0C94AD0D6DE385E044
:104AF0000E94130A0C94AD0D6EE385E00E94130A28
:104B00000C94AD0D6FE385E00E94130A0C94AD0D7B
:104B10006FE285E00E94130A0C94AD0D67E385E017
:104B20000E94130A0C94AD0D60E485E00E94130A04
:104B30000C94AD0D63E485E00E94130A0C94AD0D56
:104B400069E184E10E94130A0C94AD0D6BE786E0E5
:104B50000E94130A0C94AD0D6CE786E00E94130AC4
:104B60000C94AD0D6BE687E00E94130A0C94AD0D1A
:104B700069E687E00E94130A0C94AD0D6AE687E0AF
:104B80000E94130A0C94AD0D61E285E00E94130AA5
:104B90000C94AD0D63E285E00E94130A0C94AD0DF8
:104BA00066E285E00E94130A0C94AD0D67E285E091
:104BB0000E94130A0C94AD0D68E285E00E94130A6E
:104BC0000C94AD0D69E285E00E94130A0C94AD0DC2
:104BD0006BE285E00E94130A0C94AD0D6CE285E057
:104BE0000E94130A0C94AD0D66E485E00E94130A3E
:104BF0000C94AD0D67E485E00E94130A0C94AD0D92
:104C000060E084E10E94130A0C94AD0D68E084E139
:104C10000E94130A0C94AD0D60E184E10E94130A16
:104C20000C94AD0D68E284E10E94130A0C94AD0D62
:104C300060E585E00E94130A0C94AD0D88E60E94A1
:104C40000B0A0C94AD0D89E60E940B0A0C94AD0D75
:104C50008AE60E940B0A0C94AD0D8CE60E940B0AAA
:104C60000C94AD0D8DE60E940B0A0C94AD0D8EE6F2
:104C70000E940B0A0C94AD0D80E70E940B0A0C9465
:104C8000AD0D82E70E940B0A0C94AD0D84E70E94E3
:104C90000B0A0C94AD0D85E70E940B0A0C94AD0D28
:104CA00088E70E940B0A0C94AD0D89E70E940B0A5D
:104CB0000C94AD0D8AE70E940B0A0C94AD0D8BE7A6
:104CC0000E940B0A0C94AD0D8CE70E940B0A0C9409
:104CD000AD0D8DE70E940B0A0C94AD0D8EE70E947E
:104CE0000B0A0C94AD0D8FE70E940B0A0C94AD0DCE
:104CF00080E00E94030A0C94AD0D81E00E94030A3B
:104D00000C94AD0D82E00E94030A0C94AD0D83E07B
:104D10000E94030A0C94AD0D85E00E94030A0C94D6
:104D2000AD0D87E00E94030A0C94AD0D88E00E944F
:104D3000030A0C94AD0D8AE00E94030A0C94AD0D99
:104D40008BE00E94030A0C94AD0D8DE00E94030AD3
:104D50000C94AD0D8EE00E94030A0C94AD0D8FE013
:104D60000E94030A0C94AD0D80E10E94030A0C948A
:104D7000AD0D81E10E94030A0C94AD0D82E10E9409
:104D8000030A0C94AD0D84E10E94030A0C94AD0D4E
:104D900085E10E94030A0C94AD0D86E10E94030A8E
:104DA0000C94AD0D87E10E94030A0C94AD0D88E1CF
:104DB0000E94030A0C94AD0D81E30E944F080C94ED
:104DC000AD0D81E40E944F080C94AD0D82E40E9469
:104DD0004F080C94AD0D8EE20E944F080C94AD0D5F
:104DE00086E30E944F080C94AD0D88E30E944F08A3
:104DF0000C94AD0D8CE30E944F080C94AD0D8DE327
:104E00000E944F080C94AD0D8EE30E944F080C9445
:104E1000AD0D8FE30E944F080C94AD0D8AE30E9404
:104E20004F080C94AD0D83E20E944F080C94AD0D19
:104E300084E20E944F080C94AD0D86E20E944F0858
:104E40000C94AD0D87E20E944F080C94AD0D88E2E2
:104E50000E944F080C94AD0D8AE20E944F080C94FA
:104E6000AD0D8BE20E944F080C94AD0D8CE20E94B8
:104E70004F080C94AD0D83E30E944F080C94AD0DC8
:104E800082E30E944F080C94AD0D89E10E94FB095A
:104E90000C94AD0D8AE10E94FB090C94AD0D8BE1E1
:104EA0000E94FB090C94AD0D8CE10E94FB090C944F
:104EB000AD0D84E20E94FB090C94AD0D85E20E94C9
:104EC000FB090C94AD0D87E20E94FB090C94AD0D1B
:104ED00088E20E94FB090C94AD0D8DE10E94F3095C
:104EE0000C94AD0D8EE10E94F3090C94AD0D83E29C
:104EF0000E94F3090C94AD0D89E20E94F3090C9411
:104F0000AD0D8AE20E94F3090C94AD0D8BE20E9474
:104F1000F3090C94AD0D8DE20E94F3090C94AD0DD4
:104F20008EE20E94F3090C94AD0D81E00E941C0AF0
:104F30000C94AD0D82E00E941C0A0C94AD0D83E030
:104F40000E941C0A0C94AD0D84E00E941C0A0C9473
:104F5000AD0D85E00E941C0A0C94AD0D85E70E9402
:104F60005D0A0C94AD0D86E70E945D0A0C94AD0DB0
:104F700087E70E945D0A0C94AD0D88E70E945D0AE8
:104F80000C94AD0D89E70E945D0A0C94AD0D8AE783
:104F90000E945D0A0C94AD0D8CE70E945D0A0C9492
:104FA000AD0D8DE70E945D0A0C94AD0D8EE70E9459
:104FB0005D0A0C94AD0D60E68DE50E9459080C94D5
:104FC000AD0D68E286E40E9459080C94AD0D68E7C7
:104FD00085E50E9459080C94AD0D68E382E60E94B5
:104FE00059080C94AD0D60E084E60E9459080C94B9
:104FF000AD0D6CE389E60E9459080C94AD0D60E399
:105000008DE60E9459080C94AD0D40E161E085E009
:105010000E94C50943E060E084E00E94C50940E0C9
:1050200069E185E00E94C50940E065E185E00E94F4
:10503000C50940E06FE085E00E94C5090C94AD0D04
:1050400080E00E94330980E00E942B0980E00E94EA
:10505000230980E00E941B0980E00E94130980E080
:105060000E940B0980E00E94030980E00E94FB0877
:1050700080E00E94F30880E00E94EB0880E00E943C
:10508000E30880E00E94DB0880E00E94D30880E013
:105090000E94CB0880E00E94C30880E00E94BB0809
:1050A0000C94AD0D80E00E94B30980E00E94AB0932
:1050B00080E00E94A30980E00E949B0980E00E949A
:1050C000930980E00E948B0980E00E94830980E0C0
:1050D0000E947B0980E00E94730980E00E946B09B6
:1050E00080E00E94630980E00E945B0980E00E94EA
:1050F000530980E00E944B0980E00E94430980E050
:105100000E943B090C94AD0D81E00E94B30980E040
:105110000E94AB0980E00E94A30980E00E949B09E5
:1051200081E00E94930980E00E948B0980E00E9448
:10513000830980E00E947B0981E00E94730980E07E
:105140000E946B0980E00E94630980E00E945B0975
:1051500081E00E94530980E00E944B0980E00E9498
:10516000430980E00E943B090C94AD0D81E00E9450
:10517000B30980E00E94AB0981E00E94A30980E0AE
:105180000E949B0981E00E94930980E00E948B09A4
:1051900081E00E94830980E00E947B0981E00E94F7
:1051A000730980E00E946B0981E00E94630980E03E
:1051B0000E945B0981E00E94530980E00E944B0934
:1051C00081E00E94430980E00E943B090C94AD0DF0
:1051D00081E00E94B30980E00E94AB0980E00E9458
:1051E000A30980E00E949B0983E00E94930980E06C
:1051F0000E948B0980E00E94830980E00E947B0965
:1052000081E00E94730980E00E946B0980E00E94A7
:10521000630980E00E945B0983E00E94530980E0FB
:105220000E944B0980E00E94430980E00E943B09F4
:105230000C94AD0D83E00E94B30980E00E94AB099D
:1052400080E00E94A30980E00E949B0983E00E9405
:10525000930980E00E948B0980E00E94830980E02E
:105260000E947B0983E00E94730980E00E946B0921
:1052700080E00E94630980E00E945B0983E00E9455
:10528000530980E00E944B0980E00E94430980E0BE
:105290000E943B090C94AD0D83E00E94B30980E0AD
:1052A0000E94AB0982E00E94A30980E00E949B0952
:1052B00083E00E94930980E00E948B0982E00E94B3
:1052C000830980E00E947B0983E00E94730980E0EB
:1052D0000E946B0982E00E94630980E00E945B09E2
:1052E00083E00E94530980E00E944B0982E00E9403
:1052F000430980E00E943B090C94AD0D81E00E94BF
:10530000B30980E00E94AB0982E00E94A30980E01B
:105310000E949B0981E00E94930980E00E948B0912
:1053200082E00E94830980E00E947B0981E00E9464
:10533000730980E00E946B0982E00E94630980E0AB
:105340000E945B0981E00E94530980E00E944B09A2
:1053500082E00E94430980E00E943B090C94AD0D5D
:1053600041E36EE085E00E94C50981E00E94B30937
:1053700080E00E94AB0980E00E94A30980E00E94C7
:105380009B0981E40E94930980E00E948B0980E0E0
:105390000E94830980E00E947B0981E00E947309DA
:1053A00080E00E946B0980E00E94630980E00E9417
:1053B0005B0981E40E94530980E00E944B0980E070
:1053C0000E94430980E00E943B090C94AD0D46E326
:1053D00068E185E00E94C50980E10E94330980E010
:1053E0000E942B0980E10E94230980E00E941B0992
:1053F00080E10E94130980E00E940B0980E10E9475
:10540000030980E00E94FB0880E10E94F30880E02D
:105410000E94EB0880E10E94E30880E00E94DB0824
:1054200080E10E94D30880E00E94CB0880E10E94C6
:10543000C30880E00E94BB080C94AD0D41E468E114
:1054400085E00E94C50980E10E94330980E00E9446
:105450002B0980E10E94230980E00E941B0980E162
:105460000E94130980E00E940B0980E10E94030959
:1054700080E00E94FB0880E10E94F30880E00E9427
:10548000EB0880E10E94E30880E00E94DB0880E1F5
:105490000E94D30880E00E94CB0880E10E94C308EC
:1054A00080E00E94BB080C94AD0D46E368E185E006
:1054B0000E94C5094AE364E185E00E94C50980E1D4
:1054C0000E94330980E00E942B0984E00E94230996
:1054D00080E00E941B0980E10E94130980E00E9485
:1054E0000B0984E00E94030980E00E94FB0880E130
:1054F0000E94F30880E00E94EB0884E00E94E30829
:1055000080E00E94DB0880E10E94D30880E00E94D6
:10551000CB0884E00E94C30880E00E94BB080C9482
:10552000AD0D46E368E185E00E94C50980E00E9478
:10553000330980E00E942B0980E10E94230980E06A
:105540000E941B0980E00E94130980E00E940B0961
:1055500080E10E94030980E00E94FB0880E00E9435
:10556000F30880E00E94EB0880E10E94E30880E0FD
:105570000E94DB0880E00E94D30880E00E94CB08F4
:1055800080E10E94C30880E00E94BB080C94AD0D2E
:1055900041E062E080E10E94C50940E460E080E112
:1055A0000E94C5098CE1809391040093920481E0EC
:1055B0008093930482E08093740481E18093760465
:1055C00082E1809378040C94AD0D41E062E080E1CB
:1055D0000E94C50940E560E080E10E94C50981E1C3
:1055E000809391040093920491E09093930492E04D
:1055F00090936204809364048CE0809366040C941E
:10560000AD0D41E062E080E10E94C5094FE460E039
:1056100080E10E94C50981E1809391040093920486
:1056200091E09093930492E09093620480936404D9
:1056300088E0809366040C94AD0D41E062E080E167
:105640000E94C50945E460E080E10E94C50981E14E
:10565000809391040093920491E09093930492E0DC
:105660009093620480936404E09266040C94AD0D00
:1056700041E062E080E10E94C5094FE360E080E123
:105680000E94C50981E1809391040093920491E006
:105690009093930492E090936204809364048EE06C
:1056A000809366040C94AD0D41E062E080E10E94BD
:1056B000C50948E460E080E10E94C5098CE180935F
:1056C00091040093920481E08093930482E080939C
:1056D000740481E1809376048FE0809378040C94C5
:1056E000AD0D41E062E080E10E94C5094EE060E05E
:1056F00080E10E94C5098CE180939104009392049B
:1057000081E08093930482E08093740481E180932C
:105710007604E09278040C94AD0D41E064E089E0F9
:105720000E94C50941E064E088E00E94C50941E0AB
:1057300062E080E10E94C50948E360E080E10E94E8
:10574000C5094FE764E080E10E94C5090C94AD0DE6
:105750004AE661E080E10E94C50981E180939104FD
:105760000093920481E08093930482E0809362042A
:1057700082E18093640487E0809366040C94AD0D0D
:105780004BE661E080E10E94C50981E180939104CC
:105790000093920481E08093930482E080936204FA
:1057A00082E18093640489E0809366040C94AD0DDB
:1057B00048E761E080E10E94C50981E1809391049E
:1057C0000093920481E08093930482E080936204CA
:1057D00082E1809364048BE0809366040C94AD0DA9
:1057E00049E561E080E10E94C50981E1809391046F
:1057F0000093920481E08093930482E0809362049A
:1058000082E1809364048EE0809366040C94AD0D75
:1058100048E661E080E10E94C50981E1809391043E
:105820000093920481E08093930482E08093620469
:1058300082E1809364048BE1809366040C94AD0D47
:105840004FE561E080E10E94C50981E18093910408
:105850000093920481E08093930482E08093620439
:1058600082E18093640488E1809366040C94AD0D1A
:1058700061E088E00E94E1096DE083E00E94E109B7
:1058800041E140936005D092610591E090936205FB
:1058900082E0809331052EE02093330536E030938B
:1058A000350530931B0500931C0590931D058093CF
:1058B000EC042093EE049093F0043093D604F0921D
:1058C000D7049093D8048093A7042093A9048093CD
:1058D000AB044093910400939204909393048093BB
:1058E00062042093640489E0809366040C94AD0DF7
:1058F00061E088E00E94E10960E283E00E94E10942
:1059000086E180936005D092610591E090936205F5
:1059100082E0809355052EE020935705109259059B
:1059200031E130931B0500931C0590931D05809376
:10593000EC042093EE049093F0044CE04093D604E2
:10594000F092D7049093D8048093A7042093A904DD
:105950008093AB043093910400939204909393044A
:10596000809362042093640484E0809366040C9422
:10597000AD0D61E088E00E94E1096EE083E00E94E5
:10598000E10941E067E08EE00E94C50931E1309312
:105990006005D092610521E02093620592E090932A
:1059A00031058EE0809333058093350530931B05D8
:1059B00000931C0520931D059093EC048093EE0446
:1059C0004FE04093F0043093D604F092D704209334
:1059D000D8049093A7048093A90432E13093AB04D8
:1059E00035E03093910400939204209393049093B4
:1059F000740480937604E09278040C94AD0DC2E0B8
:105A0000C0934703FAE0BF2EB092490310924B03B4
:105A1000D1E0D0934F03C093500360E473E082E180
:105A200090E00E942E0841E06DE08BE00E94C509E5
:105A30004DE065E08BE00E94C50947E066E08BE041
:105A40000E94C50941E064E084E10E94C5094CE080
:105A500063E084E10E94C50940E062E084E10E94C5
:105A6000C5091092A5058CE08093A605D093A705E3
:105A700089E080936005D0926105D0936205C09360
:105A800043058BE080934505C093470591E19093D2
:105A90001B0500931C05D0931D05C093EC04809357
:105AA000EE041092F0049093D604F092D704D093B1
:105AB000D804C093A7048093A9041093AB049093D7
:105AC000910400939204D0939304C0936204809352
:105AD0006404B09266040C94AD0D61E088E00E940D
